:020000041000EA
:1000000000B5324B212058609868022188439860DF
:10001000D860186158612E4B002199600221596106
:100020000121F02299502B49196001219960352056
:1000300000F044F80222904214D00621196600F024
:1000400034F8196E01211966002018661A6600F04E
:100050002CF8196E196E196E052000F02FF8012189
:100060000842F9D1002199601B49196000215960AB
:100070001A491B48016001219960EB211966A021F2
:10008000196600F012F800219960164914480160C1
:100090000121996001BC002800D000471248134993
:1000A000086003C880F30888084703B5996A0420EC
:1000B0000142FBD001200142F8D103BD02B5186610
:1000C0001866FFF7F2FF186E186E02BD00000240BE
:1000D000000000180000070000035F00212200005C
:1000E000F4000018222000A00001001008ED00E03C
:1000F00000000000000000000000000074B24E7A12
:1001000000200420F7010010C3010010C5010010F9
:10011000C1010010C1010010C1010010C101001097
:10012000C1010010C1010010C1010010C701001081
:10013000C1010010C1010010C9010010CB01001065
:10014000CD010010CD010010CD010010CD01001037
:10015000CD010010CD010010CD010010CD01001027
:10016000CD010010CD010010CD010010CD01001017
:10017000CD010010CD010010CD010010CD01001007
:10018000CD010010CD010010CD010010CD010010F7
:10019000CD010010CD010010CD010010CD010010E7
:1001A000CD010010CD010010CD010010CD010010D7
:1001B000CD010010CD010010CD010010CD010010C7
:1001C00000BE00BE00BE00BE00BE00BEEFF3058054
:1001D000103800BEF2EB8871D0880010F088001053
:1001E0003802001090A31AE71E481F49086006C88D
:1001F00081F3088810471D480068002801D019487D
:10020000F3E70DA40ECC002902D000F012F8F9E7B4
:100210001749184A002000E001C19142FCD116495B
:100220008847164988471649884700BEFDE701C937
:1002300001C29A42FBD37047F0880010C000002032
:1002400058110020889900100000042000000420AC
:100250008899001000100420001004200000000005
:10026000704700000000000008ED00E0000000D032
:1002700058110020CC21002015490010F505001070
:100280000D490010F8B5C04610B5064C2378002B78
:1002900007D1054B002B02D0044800E000BF01232A
:1002A000237010BDE013002000000000AC7C0010A3
:1002B000044B10B5002B03D00349044800E000BFF5
:1002C00010BDC04600000000E4130020AC7C00100C
:1002D000802170B5294ACAB00AAE030000924900D5
:1002E000274A300004F0D4FA264A0300202102A84D
:1002F00004F0CEFA244902A800F072FB642001F059
:1003000043FF3100214804F021FD3478002C18D03F
:100310003000002120220D261D4B00255D5F1D4B66
:1003200000291AD1A5421FD099690A42FCD11C604C
:10033000017801300D394C4261410478C9B2002C7A
:10034000EED11549154800F0CFFA002811D0124916
:10035000134800F0C9FA4AB070BD99690A42E6D064
:1003600099690A42F9D1E2E799690A42FCD11E6013
:10037000DAE70C4804F060FCE9E7C046E47C0010D2
:10038000B07C0010F47C0010047D0010087D00108B
:10039000AC2100200040034088130000247D0010A1
:1003A000487D00102C7D001070B536499AB0364853
:1003B00000F016FBFA20800001F0E6FE01AC3348A5
:1003C00004F03AFC324B64212000324A04F060FA17
:1003D000314B25780020185E002D14D000212022FA
:1003E0000D262E4B002930D1A84235D099690A42FA
:1003F000FCD11D60217801340D394D4269412578C9
:10040000C9B2002DEED10D25002120220D26244C4D
:10041000224B002925D185422AD099690A42FCD174
:100420001D60217801340D394D4269412578C9B2EA
:10043000002DEED11B491C4800F056FA00281CD0B4
:100440001A48FFF745FF1AB070BD99690A42D0D02B
:1004500099690A42F9D1CCE799690A42FCD11E6038
:10046000C4E799690A42DBD099690A42F9D1D7E712
:1004700099690A42FCD11E60CFE70D4804F0DCFB0D
:10048000E1E7C046507D0010547D0010607D0010F3
:10049000E47C0010807D0010AC210020004003406F
:1004A0009C7D001088130000A07D0010CC7D001002
:1004B000A87D001010B50B490B4807F069F803211F
:1004C0000C2000F051FF03210D2000F04DFF002211
:1004D00001210C2000F062FF002201210D2000F01C
:1004E0005DFF10BD801A060048110020F0B53649A6
:1004F0009BB00400354800F073FAFA20800001F048
:1005000043FE01AD324804F097FB324B64212800D2
:10051000314A04F0BDF9314B2E780020185E002ED0
:1005200014D0002120220D272D4B002930D1B042BC
:1005300035D099690A42FCD11E60297801350D3900
:100540004E4271412E78C9B2002EEED10D26002107
:1005500020220D27234D224B002925D186422AD067
:1005600099690A42FCD11E60297801350D394E4245
:1005700071412E78C9B2002EEED11B491B4800F004
:10058000B3F900281CD02000FFF7A2FE1BB0F0BD7D
:1005900099690A42D0D099690A42F9D1CCE79969A0
:1005A0000A42FCD11F60C4E799690A42DBD099690D
:1005B0000A42F9D1D7E799690A42FCD11F60CFE717
:1005C0000B4804F039FBE1E7507D0010547D00102A
:1005D000607D0010E47C0010807D0010AC210020C4
:1005E000004003409C7D001088130000A07D001097
:1005F000A87D0010F0B5DE4657464E464546E0B5AC
:100600009DB004F0C9FA8D4801F0BEFDFFF752FF1E
:10061000FA20400001F0B8FD01AB9A465246884BE3
:1006200003CB03C2504600F0F7FB002800D1F4E0F2
:10063000504600F03BFD834804F0FEFA00F036F926
:1006400000F0B2FB00F098FB00F042F97E4804F0A5
:10065000F3FA00247D4D00F041FA00280ED1032C5E
:1006600000D1E6E001342100280004F06FFB73485C
:1006700001F08AFD00F032FA0028F0D0032C00D1FE
:10068000D7E0002399469846714B4D469B4603AFF1
:1006900000F0AAFB8146584604F0CEFA504600F01E
:1006A000D7FD0400484600F0AFFB061E08D0002D21
:1006B00006D1684804F04AFB3500FFF775FEE7E70E
:1006C00000F06AFB002802D04346002B78D0624934
:1006D000624800F085F9FA20800001F055FD60487D
:1006E00004F0AAFA5F4B642138005F4A04F0D0F8A6
:1006F0005E4B3E780020185E002E14D03C00002196
:1007000020225B4B00293DD1B04242D099690A4278
:10071000FCD11E60217801340D394E42714126789A
:10072000C9B2002EEED10D2600212022514C504B93
:10073000002934D1864239D099690A42FCD11E6021
:10074000217801340D394E4271412678C9B2002E0C
:10075000EED13A49484800F0C7F800282CD0474865
:10076000FFF7B6FD00F018FB4342584143464042B4
:1007700003409846484600F047FB434258414042F8
:10078000054085E799690A42C3D099690A42F9D1BF
:10079000BFE799690A42FCD10D211960B6E7996952
:1007A0000A42CCD099690A42F9D1C8E799690A424C
:1007B000FCD10D211960BFE7314804F03DFAD1E7C3
:1007C000304804F0C3FA00F0E7FA8046022C16D055
:1007D0000DD8002C1AD02C4804F02EFA2B48FFF725
:1007E00085FE00F0D9FA0028C4D08046C2E7042C68
:1007F000F7D1274804F020FAFFF7D6FDF1E72548A6
:1008000004F01AFA2448FFF771FEEAE7234804F0DF
:1008100013FA2348FFF76AFEE3E7224804F00CFAD4
:10082000012040421DB0F0BCBB46B246A946A046DE
:10083000F0BD1D4804F000FAF2E7C046881300003E
:10084000747F0010007E0010187E0010347E0010AF
:10085000747E0010B47E0010507D0010547D001096
:10086000607D0010E47C0010807D0010AC21002031
:10087000004003409C7D0010A07D00105C7F0010B4
:10088000A87D0010C07E0010D07E0010E47E001015
:100890004C7F0010F87E00100C7F0010247F0010A9
:1008A000347F0010E07D0010587E0010E12110B56B
:1008B0004902064801F048FD0221002000F054FDE5
:1008C0000221012000F050FD10BDC0460040034051
:1008D00010B5102000F090FDD02380221B0652029C
:1008E0005A625A6110BDC046F0B5D64646464F46DC
:1008F000FE220023C0B5354C8046A5440D005200B1
:10090000002101A8009302F0F9FC01F0D9FC0029B4
:1009100056D0FA220023920002F0DCF8814600272C
:100920002B4C0EE0FA220023920002F0D3F84B4643
:10093000C01AA84211D2A369DB061FD5012001F01D
:1009400023FC01F0BDFC0029ECD1FA21890002F062
:1009500083F84B46C01AA842EDD341461D4804F027
:10096000F5F969461C4804F0F1F9002080239B004A
:100970009D44E0BCBA46B146A846F0BD1022160020
:10098000A3691E401A42FAD1FF20236818409A46F4
:1009900004F006F9FF235B009F4205D86A465146E2
:1009A0007B1CD1551F00D6544146684606F0C4FF53
:1009B0000028C3D04146094804F0C8F90120D5E712
:1009C000FA21890002F048F88146A8E700FEFFFFFF
:1009D00000400340947F0010B07F00107C7F001027
:1009E000F0B5C646374A04009369884600B5DB0671
:1009F00007D4102193691942FCD1136893691942F5
:100A0000F8D02100304804F0A1F9304B27780020BD
:100A1000185E002F16D00D25260000212022AC469E
:100A2000284B00292FD1B84234D099690A42FCD111
:100A30001F60317801360D394F4279413778C9B29C
:100A4000002FEED10D250D2700212022AC46204E8F
:100A50001C4B002924D1874229D099690A42FCD134
:100A60001F60317801360D394F4279413778C9B26C
:100A7000002FEED140461749FFF736FF00281CD063
:100A800080BCB846F0BD99690A42D1D099690A4242
:100A9000F9D1CDE799690A42FCD161461960C4E7F2
:100AA00099690A42DCD099690A42F9D1D8E7996973
:100AB0000A42FCD161461960CFE72100064804F0E4
:100AC00045F9DDE700400340C47F0010AC21002061
:100AD0009C7D001088130000D47F0010F0B5DE4626
:100AE000574645464E46D024E0B580259FB02406A3
:100AF0006D02904804F0A0F86420A56101F044FB69
:100B00008D48656101F040FB8C4801F03DFB0323FB
:100B100003938B4B8B4F9A468B4B8C4C98468C4B4C
:100B20009946A3691022DB0606D4A3691A42FCD1B8
:100B30002368A3691A42F8D03900504604F006F938
:100B4000844B38000021595E4125002220230D26C8
:100B5000002A00D0B0E0A94200D1B5E0A26913425A
:100B6000FCD12560027801300D3A55426A41057882
:100B7000D2B2002DECD1C3464046002220230D26E0
:100B80000D35002A00D0A4E08D4200D1A9E0A26971
:100B90001342FCD12560027801300D3A55426A417A
:100BA0000578D2B2002DECD148466349FFF79CFE90
:100BB000002800D1B2E0FA20400001F0E5FA039BE2
:100BC000013B0393002BACD149466348FFF708FF74
:100BD000FA20800001F0D8FA604804F02DF8604B4C
:100BE00005AF009364215F4B38005F4A03F050FE6D
:100BF000584B3E785D4600241C5F002E16D038000E
:100C0000002120220D27514B00296FD1B44200D181
:100C100073E099690A42FCD11E60017801300D39F8
:100C20004E4271410678C9B2002EEDD10D2000214F
:100C300020220D26454B002964D1844269D0996950
:100C40000A42FCD11860297801350D3948424141EA
:100C50002878C9B20028EED101F032FB002962D019
:100C6000FA220023920001F035FF04003F4D0FE00F
:100C7000FA220023920001F02DFF3D4B001B984209
:100C800012D8FA2128008900FFF72EFE00280CD187
:100C900001F016FB0029EBD1FA21890001F0DCFEFE
:100CA000334B001B9842ECD900201FB0F0BCBB4670
:100CB000B246A946A046F0BDA269134200D150E752
:100CC000A2691342F8D14CE7A2691342FCD1266015
:100CD00044E7A269134200D15CE7A2691342F8D14C
:100CE00058E7A2691342FCD1266050E799690A428D
:100CF00092D099690A42F9D18EE799690A42FCD1EA
:100D00001F6086E799690A429CD099690A42F9D125
:100D100098E799690A42FCD11E6090E739001548AE
:100D200004F014F847E7FA21890001F095FE040069
:100D30009CE7C0460080001088130000B80B00003C
:100D4000C47F0010188000109C7D001000400340FC
:100D5000507D0010AC2100201C8000102880001065
:100D60006C800010488000105880001078800010BF
:100D70002F750000D47F001010B50F2000F03CFB51
:100D8000D02380221B0612029A62012100220F202A
:100D900000F004FB10BDC046D02301201B065B6899
:100DA000DB0B98437047C04610B506F0B3FA1F211D
:100DB0001B2000F0D9FA002200211B2000F0EEFADF
:100DC00000211B2000F004FB054B1A6880235B0107
:100DD0005340E022D2011340024A136010BDC046C6
:100DE00000C0044000D0044004228021044B49008C
:100DF0001A60044A13680B42FCD0506880B27047F6
:100E000000E0044000C004400023024A82425B41EB
:100E1000D8B27047FE0F000070B5040084B02A48B5
:100E200003F00AFF0B220F236A4413700E3B217953
:100E30002068009306F0D6FB012809D0FF21234843
:100E400003F084FF224803F0F7FE002004B070BDD9
:100E50000025012321792068009503AA06F0CCFB28
:100E60000128EBD16B461E7B1848310003F06EFF62
:100E70006C2EE7D1174803F0DFFE6A46164B206858
:100E8000938121790223009503AA06F0ABFB022887
:100E900004D0124803F0D0FE0020D7E76A46104B7A
:100EA0002068938121790223009503AA06F09AFB1A
:100EB000022804D00B4803F0BFFE0020C6E70A4812
:100EC00003F0BAFE0120C1E784800010A480001066
:100ED000BC800010DC800010104000000881001071
:100EE000114000002881001048810010F0B5DE4656
:100EF000454657464E46E0B587B01F0002AB9C46BC
:100F00000E25222365442B70213B894601790093ED
:100F10000400904600682A0006F064FBFF239B460D
:100F2000012800D1ADE023232B70223B21790093CF
:100F30002A00206806F056FB012800D18DE05A4BAC
:100F4000039324232B70233B217900932A002068EC
:100F500006F048FBFF239A4601286CD025232B700E
:100F6000243B217900932A00206806F03BFB0128EE
:100F70004ED04D4B029326232B70253B21790093B5
:100F80002A00206806F02EFBFF26012830D02723F8
:100F90002B70263B217900932A00206806F022FB63
:100FA000012814D0404A5946039B01200B4349466F
:100FB0000B805146029B16430B4341460B803E80FB
:100FC00007B0F0BCBB46B246A946A046F0BD2179A9
:100FD000206802AC00230F22A44600936244013330
:100FE00006F00AFB0128DDD10F22A2561202DAE731
:100FF000002302A884460F22217900932068013340
:10100000624406F0F9FA0128C1D102ABDE7BBEE7EB
:10101000002302A884460F2221790093206801331F
:10102000624406F0E9FA0128A3D102ABDB7B5BB294
:101030001B0202939FE7002302A884460F22217916
:10104000009320680133624406F0D6FA012800D0EC
:1010500084E702ABDB7B9A4680E7002302A8844644
:101060000F222179009320680133624406F0C4FA0C
:10107000012800D063E702ABDB7B5BB21B0203936A
:101080005FE7002302A884460F222179009320689D
:101090000133624406F0B0FA012800D043E702AB06
:1010A000DB7B9B463FE7C04600FFFFFFF0B54F46A6
:1010B0004646D646C0B5040084B05F4803F0BCFD88
:1010C00064230E259846423B0027994601266D442D
:1010D00025E000230F2200932179206801336A4420
:1010E00006F08AFA012800D090E06B460F201856CF
:1010F00000025346184302F09DF8504902F05FF891
:10110000011C381C02F044F8071C0A2001F03CF8CE
:1011100001235B429C46E0444346002B78D04B467B
:101120002B702A00012321792068009606F05AFAD4
:10113000012808D100230F22009321792068013370
:101140006A4406F059FA23232B702A00217920687B
:101150000096223B06F046FA012808D100230F2210
:1011600000932179206801336A4406F045FA24236C
:101170002B702A00217920680096233B06F032FA72
:10118000012808D100230F22009321792068013320
:101190006A4406F031FA25232B702A002179206851
:1011A0000096243B06F01EFA012808D100230F22E6
:1011B00000932179206801336A4406F01DFA262342
:1011C0002B702A00253B21792068009606F00AFA48
:1011D000FF239A4601280DD100230F220093217985
:1011E000206801336A4406F007FA012802D16B46F1
:1011F000DB7B9A4627232B702A00217920680096F2
:10120000263B06F0EFF9012800D162E70C4870E7B1
:101210000C49381C01F0BFFF0B4B186002F02CF892
:1012200002000B00094803F091FD04B0E0BCBA468F
:10123000B146A846F0BDC0466C810010295C0F3C49
:1012400000FFFFFF0000C8426C1C002088810010D6
:1012500030B583B06B466946063301AA0231FFF709
:1012600045FE00282FD06B460220185E01F0E2FFF9
:10127000314901F0A4FF314B196801F086FF051CCC
:1012800040002F49400801F0C9FF2E4C2378002868
:1012900011D1012B36D0022B1DD0002B25D02A488E
:1012A00003F0CAFC002300212370284803F04EFD00
:1012B000207803B030BD012B15D0022B11D0002BAC
:1012C000EDD10021F1E704231E4C2148237003F0E7
:1012D000B3FC2178E9E71F49281C01F0A5FF00288D
:1012E00016D10221E1E70121DFE71B49281C01F0AB
:1012F00095FF002813D002231848237003F09CFCAC
:101300002178D2E71449281C01F088FF0028EAD090
:1013100000231348237003F08FFC2178C5E70D49A3
:10132000281C01F081FF0028CBD001230D48237039
:1013300003F082FC2178B8E7295C0F3C6C1C00208C
:10134000CDCCCC3DC5210020EC81001034820010B2
:101350001482001000007041000070C1B8810010BC
:10136000DC810010CC81001010B54024084A8300B5
:101370009A181268C0005440C0222240054CA4466E
:1013800063441A60044B9C466044416010BDC046F3
:1013900004C0014004D00140004001400B4B8000DC
:1013A0009C46604400290ED100230431002A00D15C
:1013B0001900802203685201594094460C2360446E
:1013C0000B40036070470C210823EFE704C0014085
:1013D0008000002905D0064B9C46402360440360F2
:1013E0007047044B9C46402360440360F8E7C046C6
:1013F00004E0014004F001400123D0228340402159
:10140000120693629361094A83009A181268C00019
:101410005140C0220A4006498C4663441A60054B7D
:101420009C460523604443607047C04604C00140A9
:1014300004D00140004001408023DB051868000F04
:101440007047C0460FB400B5084883B003F0F4FB02
:10145000049B002B07D005A91800019103F03CFA6A
:10146000034803F0E9FB012003F04EFA4882001024
:10147000D07F001070B5EFF3108C72B60D4D2B6855
:10148000002BFCD0BFF35F8F0724CB08C618C05CCD
:1014900001230C40A3401C000440034207D1034336
:1014A0003370BFF35F8F2C608CF3108870BD100019
:1014B000FFF7C8FF2C0100D0F8B54746CE46884656
:1014C00080B5EFF3108C72B6214D2C68002CFCD047
:1014D000BFF35F8F9A422CD8D4080727055D061901
:1014E00001241740BC402C421FD007210127894608
:1014F00009E0D408055D06194C4639001440A140A6
:101500000C00294211D001329342F2D20120404214
:10151000BFF35F8F00220E4B1A608CF310880028F7
:101520000FDBC0BCB946B046F8BD2C431000347088
:10153000EEE7BFF35F8F00232B608CF31088012050
:1015400040424346002BECD00898FFF77BFFC04693
:101550002C0100D0044A1078431CDBB2172B00D9B1
:10156000102313707047C046F80F002000B5054BDC
:1015700083B00100009318221F230348FFF79CFF4C
:1015800003B000BD58820010081C00200021044B4D
:10159000044ABFF35F8F02C39342FAD17047C0463B
:1015A000000100D0800100D0054B064A1360064AB6
:1015B000136053609360D36013615361936170470C
:1015C0008080808000E400E004E400E01F231840F5
:1015D0001E3B8340002905D0C021044A49005350D6
:1015E00013607047802201498B50FAE700E100E068
:1015F00001228240034B1B6813405A1E9341D8B20C
:101600007047C04600E100E001238340014A1360B7
:101610007047C04600E200E0084B10309B68800035
:10162000C358002B07D0064A00209B1ABF229A42BB
:101630004041C0B270470020FCE7C04600ED00E02A
:10164000FC0F002070B50D00EFF3108672B60F4A44
:101650001368002BFCD0BFF35F8F0D4B10309B68DD
:1016600084001B590B4A934203D09D4201D001F0E4
:10167000EDF8074B9B681D51BFF35F8FBFF35F8F82
:101680000022024B1A6086F3108870BD240100D03E
:1016900000ED00E0CD010010F0B557464E46DE46A5
:1016A0004546E0B585B0060002911700EFF3108BB8
:1016B00072B6674A1368002BFCD0BFF35F8F00251A
:1016C000644B5D579A46002D00DAA4E06B00624C33
:1016D00003935B199B009846A146C1444B46524672
:1016E0009B79103613705D4BB2009B68019299583C
:1016F0000B1BBF2B34D95A4B994200D0A4E0039B5B
:10170000584A9C46584B6544AD00635343460233E8
:101710006519E418554B0121043B1B1B1B055B0D90
:1017200013436B80524BEF71AB80FF23AB71029B75
:10173000AB604B460B431900484B019A9B6899508C
:10174000BFF35F8FBFF35F8F0022414B1A608BF3B3
:10175000108805B0F0BCBB46B246A946A046F0BD15
:1017600001200A008243D379BB422FD845464E461A
:10177000130040491B1B5B415943090D3A4B63530E
:101780003A4B02356519043B5B1B1B05354D5B0D60
:101790002B4373800426B446E0444444131F1B1BB0
:1017A0004C46A17102991B05A16049465B0D2B4374
:1017B000A380314BE77101431360BDE75800C018A7
:1017C00080002018C679BE422BD902000623D356CA
:1017D000002BF3DA101D8246284880460426764204
:1017E000B446E14450464E46361A3005400D824616
:1017F00056461C48957106439680039A9446654464
:101800001D4AAD00641922604246A371029BA2806A
:10181000E771A36090E701F019F8002553465D5782
:1018200054E7101D824690884005001584464046C6
:10183000D444664604302018301AE0260005400DD6
:10184000360230438046C9E701F000F857E7C0464A
:10185000240100D0C6210020FC0F002000ED00E094
:10186000CD01001000E0FFFF00A1FFFFBC10002031
:1018700001BDFFFFAAAA00000148804701BD00008A
:1018800070B501240443EFF30581EFF3108C72B6B9
:10189000454A1368002BFCD0BFF35F8F434A050015
:1018A000434BAD1A6D416B431B0D424D8900AE6831
:1018B0005BB27658A64256D006215156994248D07E
:1018C00012215156994254D01E215156994252D05C
:1018D0002A215156994250D03621515699424ED024
:1018E00042215156994242D04E215156994248D0F8
:1018F0005A215156994246D066215156994244D0B8
:1019000072215156994242D07E215156994240D07F
:101910008A21515699423ED09621515699423CD047
:10192000A221515699423AD0AE215156994238D00F
:10193000BA2151560F2499420CD01F4A11781370C6
:101940008171BFF35F8F0022174B1A608CF31088F0
:1019500070BD00246100091989005218FF2191719E
:1019600016499180E9E7AA68154C5450E5E705242B
:10197000F0E70124EEE70224ECE70324EAE704247D
:10198000E8E70624E6E70724E4E70824E2E7092479
:10199000E0E70A24DEE70B24DCE70C24DAE70D2479
:1019A000D8E70E24D6E7C046240100D0FC0F002063
:1019B000AAAA000000ED00E0C621002001BDFFFF43
:1019C000CD01001000B5074B83B001000093002249
:1019D00005230548FFF770FD002801DB1F23181AB7
:1019E00003B000BD74820010CA210020024B9C4647
:1019F000614489000160704740000034F8B5134D20
:101A0000134E2C00FF27B5421ED22368002B0FD0A7
:101A1000FFF7A0FD01002800FFF7E8FFA780BFF354
:101A20005F8F0834B4420FD223682500002BEFD11A
:101A3000FFF790FD01002800FFF7D8FF2771BFF3E3
:101A40005F8F0834B442EFD3F8BDC0465011002078
:101A50005811002010B50400FFF77CFD01002000A4
:101A6000FFF7C4FFFF232371BFF35F8F10BDC04694
:101A700010B504000120FFF779FD044B9C4660443B
:101A800080002060BFF35F8F10BDC046400000346F
:101A9000034B9C46614489000160BFF35F8F704730
:101AA000400000340A4B1968EFF3108072B60A68E0
:101AB000002AFCD0BFF35F8F1B68BFF35F8F00224B
:101AC0001A6080F3108840BF002000217047C04694
:101AD000A0210020F0B5DE4657464E464546E0B50B
:101AE00085B0EFF30582032313409A00110003929F
:101AF000B64A5258904601229A40B54B91461A6018
:101B000031E043469B881BB2002B00DB9DE043463F
:101B10009B79002B00D0EFE0434608241C5F002C8B
:101B200000DA17E142465269630094461B19DB0054
:101B300063449C68DD68631C00D113E1A54B0399E5
:101B40009C4661449A6A0B69A01A9B1A984200D27B
:101B50000C61A04800F0ACFB241A8D41002D00DD83
:101B6000F8E000D12EE14B469A48436343460822F1
:101B70009B5E9A46002BC4DB424652695B0093464B
:101B80005344DB009B445B469E68DF6800F090FB9B
:101B9000801BB9410029B4DB002F00DAEDE05B4681
:101BA0008D4A1B69934200D1E0E041465A46082025
:101BB000085E5288000410435A4651699847040051
:101BC0000D0023002B4300D1D7E0002D00DBF0E017
:101BD000361BAF4134003D005B469C60DD60002158
:101BE000595E00298DDB43465B6922009C462B0031
:101BF00048004018C00060448668C768921BBB411B
:101C0000002B00DA7DE7434666460200009401950A
:101C100019810CE07B00DB19DB00F31800980199B7
:101C20009C68DD68001BA941002904DB1A00002321
:101C3000D75E002FEEDA5B461F8053461380434683
:101C40009B881BB2002B00DA61E743461A69EFF369
:101C5000108172B61368002BFCD0BFF35F8F434630
:101C60009B8842461BB29A4601235B4293801369CC
:101C7000BFF35F8F00221A6081F310885346002B58
:101C800000DA44E743465B699C46082343449B468D
:101C900053465F0043465744FF0008229A5E67445C
:101CA0005E46BC68FD68002A19DB3B000094019584
:101CB00067469C4604E01E000023F25E002A0BDB10
:101CC0000098019953009B18DB00FB189C68DD68A5
:101CD000001BA9410029EEDA6346BC461F005346AB
:101CE000338000217B5E3A809A46002BD0DA43464F
:101CF0009B79002B00D10FE70023424693714346A6
:101D000046460821595E08364B1C23D047468C4670
:101D1000556902E006004B1C17D04B005B18DB0036
:101D2000E8180A00E95E43881BB2002BF2DA0123AF
:101D30005B42DC178360C4606245ECD031803B8934
:101D4000944603803A814B1CE7D16446B846002C88
:101D500000DBE7E640BF05B0F0BCBB46B246A94693
:101D6000A046F0BD6B1C00D0E8E6F2E65B465C697D
:101D7000200023699847002821D15B4642461B88F2
:101D800013811269EFF3108372B611680029FCD039
:101D9000BFF35F8F4246594652880A8042465146F9
:101DA00051801269BFF35F8F0021116083F31088A7
:101DB000A7E6084800F07CFA24184D410CE7656856
:101DC0002468FEE6002C00D1CDE6C3E78420002085
:101DD0003C70054000400540D51A001070B52E4CEF
:101DE0002569002D04D00A212C48FFF7FFFD70BDA6
:101DF0002B4E0321300000F051FAE660FFF7AAFBFA
:101E0000284B03229C46D02322701B061B6801210D
:101E10006370254B6044A3600F2380002061022083
:101E2000638063694942A180198002311986473174
:101E30001D83585218315A5275325C3999521832F2
:101E400001319952183201319952183201319952A7
:101E5000083518329D520231183299521832013128
:101E6000995218320131995218320131995218326F
:101E7000013199521832013199520C4B0C49DC60F6
:101E800001303562FFF7DEFB01210320FFF79EFBE7
:101E9000084B1D60A7E7C046D4100020A0210020F9
:101EA0000040054040000034FFFF10008420002067
:101EB000D51A00103860054000487047D410002043
:101EC000F8B51F0008AB1B7804001600002B07D1E3
:101ED00000F0F6F932003B00121A8B41002B4CDB6C
:101EE0002269EFF3108072B61368002BFCD0BFF3A9
:101EF0005F8F62690223E15E94464B005B18DB0052
:101F00006344002901DB1A8862802269BFF35F8F76
:101F10000025156080F31088002930DB069A9E604A
:101F2000DF601A61079A5A615A8801325204520CD2
:101F3000161C002A1FD0B0B20A045E801043266926
:101F4000EFF3108572B63268002AFCD0BFF35F8FC2
:101F5000A2881A80A1802369BFF35F8F00221A60D4
:101F600085F31088074923788C4601329A40E3684C
:101F700063441A60F8BD0126DDE70020FAE701207E
:101F80004042F7E73C20000070B5C646010000B5AE
:101F90000469EFF3108C72B620680028FCD0BFF300
:101FA0005F8F02200D5E48696C0080466419E40072
:101FB0004444002D01DB208848800869BFF35F8F0F
:101FC000002606608CF31088002D30DBE360638808
:101FD0000598013320615B0406985B0CA260606188
:101FE0001A1C002B21D090B22B04628018430A697E
:101FF000EFF3108672B61368002BFCD0BFF35F8F2F
:102000008B8823808D800B69BFF35F8F00221A605D
:1020100086F310880B7801329A40CB6805498C46CC
:1020200063441A6040BCB04670BD0122DBE701206A
:102030004042F7E73C20000010B543890A14934260
:1020400033DD53009B184269DB0094460469634406
:10205000EFF3108C72B62268002AFCD0BFF35F8FBA
:102060005A88090494B2090C8A4208D00369BFF364
:102070005F8F00221A608CF31088002010BD802230
:10208000120214435C80012302698371BFF35F8FE6
:10209000002111608CF31088054902788C4693402A
:1020A000C268012062441360E8E70020E6E7C0460A
:1020B0003C20000040787047F0B504000D00062673
:1020C0007642F717C64636196F4100B582B08F4287
:1020D00014D811D000F0F4F832003B00121A8B41F2
:1020E000002B15DC002B44D02000290000F01CF947
:1020F00002B080BCB846F0BD8642EBD9002600276E
:1021000000F0DEF832003B00121A8B41002BE9DDB3
:1021100000F0D6F832003B00121A8B41002B0ADB8C
:1021200000230193144B3200009314483B00FFF747
:102130002BFF0028D8DBB0460026BC46104A114FC2
:102140007B6A9C4504D8B96A8845CDD99C45CBD1DA
:102150001168EFF3108072B60B68002BFCD0BFF350
:102160005F8F1368BFF35F8F1E6080F3108820BFFE
:10217000E6E7002AB8D0CBE7A51A0010D41000205B
:10218000A02100200040054070B5060000F098F83E
:10219000FA2204000D00002330000021920000F01C
:1021A000D7FF00196941002902DBFFF785FF70BDE9
:1021B000012001494042F8E7FFFFFF7FF0B5CE461E
:1021C000474680B504000D0083B0EFF30587002F6C
:1021D0003BD12F4E81463378F26804339B00916ADD
:1021E0009B58421A5B1A9A420ED320BF294A0020FC
:1021F000536AAB4203D3926A013091453CD803B095
:10220000C0BCB946B046F0BD00F05AF822002B0021
:10221000121A8B41002B26DB1F4B2200009330004B
:102220002B000197FFF7B0FE011E1CDD194BA846DD
:102230005A6A954225D920BF3000FFF7FDFE154AA6
:102240000020536A9845DAD8D5E7124A0020536A2D
:102250008B42D4D3926A0130A242D0D2581A421E85
:102260009041C0B2CBE70B4A0020536AAB42C6D3C1
:10227000926A01209145C2D9E81A421E9041C0B22B
:10228000BDE79B6A9C42D7D99542D5D1D3E7C046DA
:10229000D410002000400540A51A001010B5024AD5
:1022A0000248FFF7E7F810BD908200100C1C0020D8
:1022B0000300416A0A00986A596A8A42FAD1704753
:1022C000034B596A0A00986A596A9142FAD17047D9
:1022D0000040054070B504000D00124A536A190011
:1022E000966A536A8B42FAD13000190024184D4186
:1022F000AB4211D80ED02B000A494A6A9A42FCD34D
:1023000007D1084A02E0516A994202D1916AA1427A
:10231000F9D370BDA642EED9012301246442E5172A
:102320005B42E9E700400540064A536A9942FCD8FF
:1023300007D1044B02E05A6A914202D19A6A824262
:10234000F9D3704700400540F8B5040006200D00A1
:1023500000F076F9002842D0364B3749E218534254
:102360005A418023DB039C469205344B62441A6039
:10237000334B1A6010000B689843FBD12D4B802122
:10238000E3185A4253412F4A5B00490099520620F4
:1023900000F056F92900C00000F05EFB0130C309CF
:1023A0001ED1402701226262A362266BF30722D46A
:1023B000E36A254B0620E51800232B60266300F016
:1023C0003FF93900800000F047FB7022E36A5A4071
:1023D0007E2313402B601D4B23630323A364F8BDAE
:1023E0001B4A93421ED900231A4A1B4F6262A36202
:1023F000266BF307DCD5194B144AE3181A60656A9B
:10240000A26A0620AD01AD1800F01AF9144900F0D7
:1024100023FBAD020100280000F01EFB0021FFF7A6
:1024200059FFC5E74006800E9F011A003F180300C0
:10243000B9E7C0460080FCBF08C0004000E0004093
:1024400000F00040AC2100202C100000010300002F
:10245000FEFF0000FFFF0000C0FF3F003030000023
:102460004E0E0000F8B5DE464E4657464546E0B5EE
:102470008B4605000A991800160000F0EDFA0A9B39
:102480006C001F02324B64199C46A40064446368CC
:1024900081469F4200D967602B1FDBB29846012B13
:1024A00030D9C02380229B01E31812011A60294B06
:1024B000AD0059599A4600291BD122687601724015
:1024C000E0268023164042465B01E3181E60012A85
:1024D00030D9802380229B01E31812011A605346F1
:1024E0004A4667605A51F0BCBB46B246A946A04670
:1024F000F8BD586900F0B0FA431C5800C018033802
:10250000FDD2DAE75B46012BCBD1C02303229B012E
:10251000E3181A60023AA3681A42FCD0E02322684A
:10252000760156401E4080230A4A5B019246E3181A
:102530001E60AD005A462168514003220A401A60CD
:1025400001225B469A40A3681A42FCD0C1E7C0460C
:1025500000800040101C0020F0B546464F46D6468D
:10256000C0B51F00344B44009C462418A4006444AA
:10257000636888461600FF2B02D880235B006360E7
:10258000031FDBB29A46012B30D9C02380229B0166
:10259000E31812011A60294B850059599946002900
:1025A0001BD1226876017240E026802316405246F5
:1025B0005B01E3181E60012A30D9802380229B0131
:1025C000E31812011A6080235B0063604B465F5181
:1025D000E0BCBA46B146A846F0BD586900F03CFAE6
:1025E000431C5800C0180338FDD2DAE74346012BDC
:1025F000CBD1C02303229B01E3181A60023AA368DF
:102600001A42FCD0E0232268760156401E40802307
:102610000A4A5B019146E3181E6085004246216824
:10262000514003220A401A60012342469340A268A7
:102630001342FCD0C1E7C04600800040101C0020BF
:10264000014B8000C0587047101C0020F8B50400F2
:1026500020481D0017000E0000F0FEF901003800B0
:1026600000F0FAF9069B29041B0319432368002B89
:102670001EDB194B194DE21853425A4180235B016E
:102680009C461203164B62441A60164B1A601700E0
:102690002B689F43FBD1144B2660E2182123A060D6
:1026A00013602368002BFCDA0823E1601360F8BD97
:1026B0003F2322681340B342DBD1A3681B051B0DE7
:1026C0008342D6D1EE22E368D20213408B42D0D1AE
:1026D000EDE7C046001BB7000040FDBF08C000404A
:1026E00000E0004000F000400430000010B514008D
:1026F00080221B4BD2051A6000281AD00123194AE8
:102700001843194BDA61194A42401A6259629862B9
:102710008022134BD2051A601549164A1160E02237
:10272000D2041A60002C07D18022134B12061A60C3
:1027300010BD0D4BD861EBE763011B1B9A00802392
:10274000121912015B049A4200D30C4A0C4B1A6016
:10275000054B5A608022084BD2051A60E8E7C04654
:1027600000B00540D3C007B0008005402D3FF84FB2
:10277000FCFF01000820014000A00540FFFFFF0012
:10278000742000208023024A9B000B43D3627047D1
:1027900000800540142310B50100188804331B88FD
:1027A000984710BD162310B50100188802331B8806
:1027B000984710BDF8B54746CE4680B50F1E19D0D4
:1027C00014239946043304000025012698464B46FD
:1027D0001888434621681B88984701C4431E9841C6
:1027E000013540420640AF42F1D13000C0BCB9468D
:1027F000B046F8BD0126F8E7142370B50400188828
:1028000004331B880D000549984703000020002C65
:1028100001DB0130A04029009847C0465542000026
:10282000AA23064A1B0113602F230549D360054BD9
:1028300019605368002BFCDA7047C0460040024024
:1028400000B0FA00006002407047C04610B5014871
:10285000FEF7F8FDB482001070B5074D074EB54283
:1028600009D20024013E761BB60808CD9847230004
:102870000134B342F9D170BD687C0010A47C001013
:10288000054B064A06491A60064A074B1A601000B3
:102890000B689843FBD1704700E00040BFCDFBFEC2
:1028A00008C00040FE7F3C0000F00040044BDB6CA1
:1028B000002B03D18022034BD2021A607047C0461E
:1028C000000011504C201150044A054B1A60054A73
:1028D0001368DB018033FBD17047C046FFFFFF0167
:1028E00000F0004008C000404022034B9A675A673E
:1028F0001A67DA667047C04600F0014010B5FEF76F
:1029000045FE10BD70B5044D044C2800C022A168DE
:1029100000F0FAFCA56070BD0000002000ED00E0B2
:10292000002310B5294C82B0A367FFF779FF01227D
:10293000274B1A60636C012BFCD10322254B1A60D4
:10294000224A936B012BFCD1013300930121224ACF
:1029500022480433FFF77AFE052301210093204A21
:102960002048FFF773FE0022022104201E4BFFF7D0
:10297000F3FD0022012105201C4BFFF7EDFD002295
:10298000002107201A4BFFF7E7FD00220021082055
:10299000174BFFF7E1FD8023DB00009300220021AD
:1029A0000920134BFFF75EFD0022104B002106208B
:1029B000FFF7D2FD0420FFF743FE0E4900F04CF86C
:1029C00001000020FFF7DEFE02B010BD00800040D5
:1029D0003CB0004030B00040002F685900800240F9
:1029E000008C864700C00240001BB70040597307A7
:1029F000006CDC0240420F0001480421014B1847E3
:102A0000F0100020B5270010124A936F9B0815D2D2
:102A10009066D166002905D0FFE7FFE7FFE7516F19
:102A2000106F704704B580210906C2175140002875
:102A300000D0C84305F0D0F8002104BDF0B5146EF5
:102A4000556E576F166FFFF7E3FF146655665767AD
:102A50001667F0BD000000D0114A936F9B0813D297
:102A600010665166002905D0FFE7FFE7FFE7516FC9
:102A7000106F704704B5002801D00020C04305F056
:102A8000ABF8002104BDC046F0B5146E556E576F0B
:102A9000166FFFF7E5FF1466556657671667F0BDBA
:102AA000000000D094464A4A926F9208624601D2D2
:102AB00028E0C046F0B5464E346E756E776F366FBF
:102AC00000F020F89446424A146655665767166728
:102AD0006246F0BD94463E4A926F9208624601D229
:102AE00054E0C046F0B53A4E346E756E776F366F6F
:102AF00000F04CF89446364A1466556657671667D8
:102B00006246F0BD002B24DB11D000293EDA00B56F
:102B1000C943404200D1013100F038F8C943404276
:102B200000D10131DB43524200D1013300BD002A04
:102B3000EBD1002801D1002905D00020C90FC90719
:102B400001D1C043410800B505F03EF80022002342
:102B500000BD00B500290ADBDB43524200D101333E
:102B600000F014F8C943404200D1013100BDC9430F
:102B7000404200D10131DB43524200D1013300F029
:102B800005F8DB43524200D1013300BD002923D1B7
:102B9000002B18D1002A0CD0BC460D4F38667A663F
:102BA00000210023FFE7FFE7FFE77A6F386F6746F2
:102BB0007047002801D00748010000B505F004F86F
:102BC0000022002300BD02000B00002000217047FE
:102BD000000000D0FFFFFFFF002B00D0BFE0130C70
:102BE00028D1002AE7D080B4114F39667A66FFE712
:102BF000FFE730B4040C7B6F396F1B0423433B6643
:102C00007A66FFE7FFE7FFE7C04684B27B6F3D6F60
:102C10001B0423433B667A66FFE7FFE7C0460023B9
:102C20002C042D0C7A6F386F00196941B0BC7047C5
:102C3000000000D0F0B594460025140E01D1120218
:102C40000835140F01D112010435940F01D19200FF
:102C50000235D40F01D152000135D40B0134254F78
:102C60007C66254C3C660E0C93B2FFE7FFE7FFE75E
:102C70003C6F6643360C7703BE467343DF0B5B0441
:102C8000C01AB941130C7343DB18C91ACE08664346
:102C9000360CB64493B273431F0F1B01C01AB941DF
:102CA000130C73431F0B1B05C01AB941860D8F020D
:102CB0003E436643360C092D24DB520A7243801AC8
:102CC0007703460A6643360C16235B1BDE40DF4063
:102CD000BF1964466643821B704604350633010003
:102CE000D940A840C01900D30131A24206D2002326
:102CF000F0BD0000000000D0FFFFFFFF121B0130FD
:102D0000F3D3F1E709277F1BFE406446A2B272436A
:102D1000801A00D20139220C7243130C1204821A59
:102D200099410B007046043513370100F940A84063
:102D3000801900D30131002B02D1A2420AD2F0BD8A
:102D4000013000D30131121BFAD2013BF8D1A2426B
:102D500000D2F0BD013000D30131121BF7E7F0B50E
:102D60001C0C00D080E00CB400251C0A04D11B020E
:102D7000160E3343120208351C0B04D11B01160F2B
:102D80003343120104359C0B04D19B00960F33434F
:102D900092000235DC0B02D192185B4101351C0018
:102DA000971864410134464F7C66464C3C660E0CD5
:102DB000FFE7FFE7FFE7C0463C6F6643360C77034B
:102DC000BE4697B27743C01B00D20139C01B00D268
:102DD00001399FB27743C91BC91B170C77437E0487
:102DE000FF0B801BB941CE086643360C0C2D33DB3C
:102DF000B644120B1F053A431B0B97B27743C01B17
:102E000000D201399FB27743C91B170C77433E04A8
:102E10003F0C801BB941860D8F023E436643292734
:102E20007F1BFE400C3D7746AF40BF1930BCA2B2BD
:102E3000ABB272437343801A9941220C7243130C54
:102E40001204801A994102000B000137001BA941AE
:102E5000F9D2781E0021F0BD0C277F1BFE4077467B
:102E60007F0BAF40FF19E0E700245D1C07D0144F33
:102E70007D663966FFE7FFE7FFE7FFE73C6F95B246
:102E80009EB265436643401BB141150C1E0C654361
:102E9000664336042F0C3E432D04401BB14199423A
:102EA00004D202000B0020000021F0BD01D19042AD
:102EB000F7D3801A994101349942F2D3F6E7000022
:102EC000000000D0FFFFFFFF48404140484018B4D9
:102ED000134B5B68019308BD18B4114B1B68019339
:102EE00008BD94460F4A926F920805D2624618B404
:102EF0000B4BDB68019308BD0A4AF0B5146E556EA2
:102F0000576F166F6246FFF7F2FF064A1466556662
:102F100057671667F0BD18B4014B9B68019308BD55
:102F2000E0120020000000D0FFB550404240504069
:102F300059404B40594000E0FFB5154F4C00640D1F
:102F400003D0BC4204D10C0314D80020090D09059C
:102F50005C00640D03D0BC4204D11C030AD80022DB
:102F60001B0D1B0501264B4009D44B4003D58B425A
:102F700000D18242FFBD9942FCD19042FFBD0B437C
:102F8000DB1803431343F5D0C9434918FFBD0000C4
:102F9000FF07000000B5FFF7CFFF804100BDC0462E
:102FA00000B5FFF7C9FF01D9002000BD012000BD19
:102FB00000B5FFF7B9FF01D9002000BD012000BD19
:102FC00000B5FFF7B1FF804100BD012040054A0078
:102FD000121804D85A00121801D800207047012096
:102FE000704700000021002805D17047C1174840F4
:102FF000401AFAD0C90713B5064B1B6898470CBC9A
:10300000441CA2401005120B0349091B0905194372
:10301000114310BD9C2000201F04000010B54C007F
:10302000620D8023D218DB00D21A5B057E2A10DDE8
:103030009E3A13DACC170903490819435242D1408A
:10304000640001341532202A05DAD0400843604379
:1030500010BD002010BD0846604310BDC80FC01849
:10306000013810BD18B4024B5B6A019308BD000023
:10307000E012002010B50148FEF7E4F9C08200100C
:10308000132370B51D78012D15D039DD1E48FFF7CB
:1030900089FB06001D48FFF785FB1D4C802231008F
:1030A000200000F031F9022D27D01A48FFF772FBFB
:1030B000194B186070BD194B154C23606360A360F9
:1030C000E36023616361A361E36123626362A362DE
:1030D000E36223636363A363E36323646364A364BE
:1030E000E36423656365A365E36523666366A3669E
:1030F000E36623676367A367E367094BA364D4E7C9
:10310000034C074BA364D0E7534400005346000030
:10311000E01200204C3300009C200020753000108D
:103120002531001007B5604601880A0A0230DF2AFF
:10313000FAD1C9B2820804D302884088000410433F
:1031400000E00068014A5050039007BDE0120020E3
:1031500051434343C9188C46110C83B24B4310B4FE
:10316000040C614392B280B2504362431C041B0CB6
:10317000001910BC59411304120CC018514161448C
:10318000704700004840414048400E4B5B6818477C
:103190000C4B1B6818470C4A936F9B0802D2094BD3
:1031A000DB681847F0B5146E556E576F166FFFF752
:1031B000F6FF054A1466556657671667F0BD014B62
:1031C0009B681847A0200020000000D007B54840A9
:1031D0004140484001E0C04607B54200120E03D00E
:1031E000FF2A03D1420218D8C00DC0054A00120EB2
:1031F00003D0FF2A03D14A020FD8C90DC905012205
:10320000414005D4414001D5814207BD884207BDF8
:103210000143491801D0C043001807BD00B5FFF7AE
:10322000DBFF804100BDC04600B5FFF7CFFF804106
:1032300000BD0000C10FC90700D54042002817D0CB
:10324000F44603B40B4B1B68984706BC81409E387C
:103250004042803107D20B0607D04900490AC00519
:103260001043084360470130F8E7490A8902F5E74F
:10327000704700009C200020014BDB6F18470000C6
:10328000A020002010B50148FEF7DCF8E07C00101B
:10329000132310B510481C78FFF784FA0100012CA5
:1032A0000AD003DD80220D4800F02EF80C48FFF70D
:1032B00071FA0C4B186010BD084C5422200000F02D
:1032C00023F82300084A80332168002900D12260B6
:1032D0000434A342F8D1E9E753460000A0200020BF
:1032E0004C3300009C20002085320010014804214E
:1032F000014B184700110020B5270010014B1B6837
:103300001847000000110020014B5B6818470000BF
:10331000001100209A4200D2885470477047C0467E
:10332000F8B557464E464546DE46E0B599460A9BF7
:1033300007009A460D9B8846934615000B9E9B07F7
:1033400010D10C9B9E420DD29D1B14000E005D44BB
:1033500022004B46013431002020B847A542F7D166
:10336000B0460B9E002E27D0444675195346AA1B23
:10337000013E985D21004B46B847002EF6D1230050
:103380002C0098460D9B9B070FD55B46E51A0C9BBE
:10339000AB420AD94646984622004B4631002020CF
:1033A0000135B8470134A845F6D82000F0BCBB462B
:1033B000B246A946A046F8BD2C00E3E7F0B54F465B
:1033C0004646D646C0B584B098460EAB1B78129FD1
:1033D000994694460D9C109B119EBA0725D4002E49
:1033E0004BD19C4200D3BFE001223A4092461F2CB1
:1033F00000D9B8E00C9A551E302201E0202C03D0F1
:1034000001342A55A342F9D85246002A0DD0A642CB
:103410000BD9202C44D00C9A551E302201E0202CD0
:103420003ED001342A55B442F9D1FA064DD57A0579
:103430003FD4002C39D10F9B102B00D179E00F9B8A
:10344000022B00D18AE030230C9A012413704B46E2
:10345000002B3FD02D230C9A135501340C9B624650
:1034600000930397434602960194FFF759FF04B077
:10347000E0BCBA46B146A846F0BD012215003D4069
:10348000AA463A422FD04A46002A02D10C323A428A
:1034900000D0013E9C42BAD21F2CABD9202E27D996
:1034A0002024FA06DAD57A0503D4A3422DD0A64209
:1034B0002BD00F9B102B32D0022B20D0202CCDD024
:1034C00030220C9B1B191A700134202CC6D04B469D
:1034D000002BBFD17B070DD43B07BFD520230C9A0F
:1034E00013550134BAE79C429FD21F2C00D881E7C4
:1034F00020249AE72B230C9A13550134AEE7202C95
:10350000ACD00C9B1B1901343AE0631E012C92D005
:103510000F9A102A2AD0022A2FD01C00D0E7BB060F
:103520000ED4202C9AD00C9B1A19013478231370D6
:10353000C4E7BB060DD478230C9A01241370BFE7AF
:10354000202C00D18AE758220C9B1B191A700134D9
:10355000B4E758230C9A01241370B1E70C9A603336
:1035600001241370ACE7202400265EE7023CBA0673
:10357000E9D40C9A12191C00D8E70C9A92465344CD
:1035800062221A709AE7C04610B5002800D110BD1B
:1035900001F006FBFBE7C0460B0010B5002802D087
:1035A00049681B68984710BDF0B5DE4657464E4641
:1035B0004546E0B59BB09B46249B89469846259B93
:1035C0000B900C924046424619009A46FFF7FDFCCC
:1035D000002800D0D8E0012240465146774B5242A5
:1035E000FFF7EEFC002800D0CEE001224046514615
:1035F000734B5242FFF7CEFC002800D0C4E00022FB
:10360000002340465146FFF7C5FC002800D0B9E131
:10361000424653460A9209938023289ADB001A40B7
:103620000E92289A1A4201D1062326930A9A099BE0
:103630001600134300D0C7E0289B002500261B0579
:1036400000D49BE100230D93269A0D9B9A4200DC47
:103650009FE1D01A431E26938023289ADB001A4349
:103660000023002728920D93279B0024BB4200D9FA
:10367000DC1B0223289A1A400E92289A134203D088
:103680007B427B415B421C400D9B002B07D00A987C
:1036900009992A003300FFF724FC0A9009910022BF
:1036A000002340465146FFF775FC002805D08020D6
:1036B00000068446099961440991289A414B0B9D63
:1036C00013400493269B0A9A0293099B0394009249
:1036D000019349465B4628000C9A00F08BF90400E0
:1036E000002F62D0289B220098061F23C017984302
:1036F000631C984649465B466530A8470D9B0025EC
:10370000DA179C18DB0F9A465440013F01E0202D48
:1037100013D00AAA94461F23200063440A210135CE
:103720005E19FFF799F93031317020000A21FFF757
:1037300093F926000400092EE9D8052306930023F7
:1037400004930A330393534605970B9F029312ABDE
:10375000009342465B46494638000195FFF72EFE2E
:103760000E9B0400002B20D00C9BC51A279BAB425C
:103770001BD91E0022005B46494620200135B84770
:103780000134AE42F6D810E0289B42460493279BB2
:1037900049460393269B0B9802935346009201934C
:1037A0005B460C9A00F026F9040020001BB0F0BC28
:1037B000BB46B246A946A046F0BDC046FFFFEF7F1C
:1037C000FFFFEFFFFFF7FFFF734B099F9C46780059
:1037D000400D6044FFF70AFC704A714BFFF79BFBFA
:1037E000704A714BFFF778FB3B03704A1B0B1A437F
:1037F00004000D00300011006D4B0022FFF767FB45
:103800006C4A6D4BFFF787FB02000B00200029007C
:10381000FFF762FBFFF702FC0D90FFF7E7FB674A3B
:10382000674B04000D00FFF776FB0022654BFFF7A6
:1038300053FBFFF7F3FB644A0600644B20002900AA
:10384000FFF769FB040030000D000F96FFF7CEFB79
:103850005F4A604BFFF75FFB02000B00200029006E
:10386000FFF735FB02000B0006000F00FFF753FBCC
:10387000320004000D003B0030003900FFF72CFB44
:10388000002210901191544B20002900FFF729FBD2
:103890000022524BFFF720FB02000B002000290002
:1038A000FFF71FFB00224E4BFFF716FB02000B0039
:1038B00020002900FFF715FB0D00802104003200D5
:1038C0003B000020C905FFF702FB02000B002000AF
:1038D0002900FFF701FB02000B0010981199FFF778
:1038E00000FB0022314BFFF7F7FA3E4B0F9C9C4642
:1038F000644400222305FFF70EFB05000E000200C2
:103900000B000A980999FFF745FB00280AD00D9B88
:103910002800013B31000D930022304BFFF7E1FA04
:1039200005000E00C6270D992B0063318F42BF4161
:1039300028997F420437090500D495E6334300D126
:1039400082E6099C284A2100284B0A98FFF730FBA1
:10395000002808D000222100254B0A98FFF71AFB07
:10396000002800D070E6269B002B00D17CE60E9B41
:103970005A1E9341269AD31A269375E600230427EC
:103980000D9371E643460A9380231B065344099323
:1039900042E6002326935FE601FCFFFFFB799F5080
:1039A0001344D33FB3C8608B288AC63F0000F03F62
:1039B0000000F83F61436F63A787D23F71A3790985
:1039C0004F930A400000E03F1655B5BBB16B024073
:1039D000EF39FAFE422EE63F00002C400000244062
:1039E00000001840FF0300002D431CEBE2361A3F95
:1039F00080842E41F0B54E46DE4657464546E0B53A
:103A000097B09946209E219F229B83469846079116
:103A10000C923B00320030003900FFF7D6FA002844
:103A200000D0A9E1012230003900CA4B5242FFF711
:103A3000B1FA002800D0E1E0012230003900C64B85
:103A40005242FFF7BDFA002800D0B7E00022300054
:103A50003900C24BFFF7B4FA002800D099E00022E9
:103A600030003900BE4BFFF795FA002800D090E0F7
:103A70000022002330003900FFF78CFA002800D024
:103A8000B1E000230D93249B5B0501D406239846E7
:103A900008AB9C461722002430234146624404E0D0
:103AA000013413550139202C01D00929F8D8884652
:103AB00030003900FFF7B2FA4346DA00A94B05009F
:103AC0009B181A685B6808920993FFF78FFA020047
:103AD0000B0030003900FFF7FAF9089A099BFFF74D
:103AE0001AFA0A900B91FFF7BDFA8246FFF77AFAAD
:103AF00002000B000A980B99FFF7E9F900229A4B94
:103B00000A900B91FFF75CFA002800D1C0E0012376
:103B10009C46E2445046FFF765FA02000B00089805
:103B20000999FFF73DFA002802D000239A46013593
:103B30004346002B6AD008AB17269C46089566447E
:103B4000554614E001235B4243440A2128009A466B
:103B5000FEF782FF013430313719397028000A210D
:103B6000FEF77AFF092D00D8D0E0D0460500202CC2
:103B7000E8D10EAB98460323249A1340012B00D1C1
:103B800096E02023249A01930392239A43460292BB
:103B90001EE0249B58460493239B009601970393B1
:103BA00043460C9A029307994B46FFF7FDFC17B06A
:103BB000F0BCBB46B246A946A046F0BD249B5B07BD
:103BC0000ED40322694B2499019203912399029107
:103BD000009358464B460C9A0799FFF7A1FBE6E77E
:103BE0000422634BEFE73B00320000200021FFF787
:103BF0006EF9012306000F000D9344E7249B039305
:103C0000239B0293042301935A4BE1E72800FFF71B
:103C1000EDF902000B0030003900FFF758F9524B64
:103C2000002206000F00FFF7B5F90EAB98460028FA
:103C30000AD10022300039004B4BFFF7C1F90028B0
:103C400002D1EB0700D50135202C94D008AA944668
:103C50001723280063440A2101341E19FEF7D4FEFD
:103C60003031280031700A21FEF7CEFE051EEBD15F
:103C70000323249A1340012B1BD0202C00D180E772
:103C80000D9B002B35D02D224146631C0A5579E748
:103C900000220A980B99344BFFF77CF9002800D0DA
:103CA00046E75346002B51D101239C46E2443FE7AF
:103CB0002024239B002BE0D00D9B002B03D1249AC2
:103CC0000C33134202D0239B013B2393239BA3423B
:103CD000D3D908AB9C46172230236244202C00D154
:103CE0004FE72399013413558C42C6D0202CF8D1CC
:103CF00047E7249B5B0724D4249A2300120700D4AF
:103D000040E72022414601330A553BE75746089DCC
:103D1000202C00D12DE7220030214046002F09D071
:103D20000132B154202A00D123E7D3431B191B18B9
:103D3000002BF5D10EAB98462E234146541C8B54D4
:103D400082E72B224146631C0A551BE7DB0700D4A0
:103D5000EEE6A9E7FFFFEFFFFFFFEF7F65CDCD4167
:103D600065CDCDC1808500100000E03F8483001048
:103D70008883001094830010249B0393239B029359
:103D800003230193004B23E790830010F0B5DE4638
:103D90004E4657464546E0B59FB01C00289B9146CD
:103DA0000993C94AC94B8B4608901A60002900D173
:103DB00018E2002320789A46002800D11AE2260053
:103DC0001D005C460AE02A006F1C4B46089D21003E
:103DD000A8473D0001363078002870D02528F2D160
:103DE00010239B46083B9A46043B9846023B002121
:103DF0009C46721C107816000300203BDBB2102B8F
:103E000003D8B34F9B00FB589F460300303B092B60
:103E100032D900230A932A2868D0002398462E28F6
:103E20003ED00300683BDBB2122B1CD8A94A9B0092
:103E3000D3589F46012301321943DBE76346013221
:103E40001943D7E7434601321943D3E75B460132B2
:103E50001943CFE7534601321943CBE780235B0078
:103E60007078194301360300253BDBB2532BAAD8E7
:103E7000994A9B00D3589F4600270300B800C019F9
:103E800001364000C018337830381A00303A070045
:103E9000092AF3D90A901800002398462E28C0D189
:103EA00080237078DB0019430300303B721C092B20
:103EB00000D8A1E12A2800D1B2E11600B1E7A3465B
:103EC000AA462C00D14503D801235B424B449A46B5
:103ED0004B46524659460020089DA84720001FB077
:103EE000F0BCBB46B246A946A046F0BD099B40CBFC
:103EF0000A96002E03DB50780993561C8DE728386C
:103F0000014370420A9009935078561C85E778283F
:103F100000D1DFE1582800D14CE26F2800D14FE3F7
:103F2000622801D100F030FC10230A009A430B9262
:103F3000692801D000F0A9FC0A230C934B0500D599
:103F4000D0E10B9A802311009B0019408B461A4246
:103F500000D0A1E2802311005B0019408A461A427A
:103F600000D0B6E313005B0600D5EDE2130009991B
:103F70001B0601D400F076FC08C91BB2D8171A182A
:103F8000424092B209919346DA0F1292002B09D166
:103F9000802310220B99DB000B4091430B91002BE7
:103FA00000D0E4E20B9A6123920600D541230EA9CA
:103FB0001F228C46DBB262440A3B5F461395A34640
:103FC00055460C9CB2460D9316000AE03033DBB226
:103FD00001357355A74200D2EDE2202D00D1EAE26F
:103FE000070021003800FEF737FDCBB20929EDD9D3
:103FF0000D9A94466344DBB2EAE780239B00707815
:10400000194301362FE77078682800D1CDE180236D
:104010000136194327E770786C2800D1BFE180236F
:104020005B00194301361EE7462800D19BE10722B9
:10403000099B0491073393430A9A1900039242465D
:1040400002920CC908980092019309912A004B46EC
:104050002100FFF7CFFC01360500BCE62A006F1CEB
:104060004B46089D21002520A84701363D00B2E6B9
:104070008B0700D4ADE1099B2A009A466B1C984639
:10408000534601CB21009A46089F4B46C0B2B84721
:104090000A9B9C466544012B00D886E2089B474654
:1040A000B04626004C4699463A00230001373100BD
:1040B0002020C847AF42F7D1A146534634004646B8
:1040C0000993013687E6C0468D3D00107020002020
:1040D0009C830010E08300102C840010099B04CB0B
:1040E0009B4643460992002B00D1C6E013789C46BC
:1040F000002B00D1BDE34346013B099A0133D018A0
:104100000A9F130001E0834203D05A780133002A4A
:10411000F9D1099A0A979B1A0B9380230A00DB00B6
:104120001A400C92194204D00B9B434501D94346D7
:104130000B9302231A000A400D920B4200D187E133
:104140006046002800D168E10C9B002B00D10DE1F6
:10415000A844C246099B57465B1B9846089BB2463B
:104160002A0026004C46994609E023003100551CE0
:10417000C8474346585D002800D126E12A009742EF
:10418000F3D1A1463D00340056460D9B002B00D0D4
:1041900043E15B46013609931DE6099B1A0008CAF4
:1041A0009246002B48D0212211438B460EA884460C
:1041B0001F216144099500220F27A4460D0002E04B
:1041C000202A0CD00B003C001C4020003730092C6A
:1041D00000D807380132A85419090F2BF0D86446CB
:1041E000099D32E0DC4B2078089300239A46002892
:1041F00000D0E4E5002465E6434606000A9F9800E7
:10420000C0180132400080191678030030003038A1
:10421000303B0928F3D93000984616000A9700E68B
:10422000099B023604CB9046D2434046D217104039
:10423000804609933078F4E510220800904311324B
:104240001043834600224905B0D55B4606930823F8
:10425000059343460493102303930023029316AB64
:10426000019200932A004B4621000898FFF7A6F818
:104270005346050001360993ADE513789C46002BA3
:1042800000D1F7E202235B4237E7202302009A4382
:10429000472A04D180231B01194302239843452850
:1042A00001D1202319430722099B0491073393432B
:1042B0000A9A19000392424602920CC90898009289
:1042C000019309912A004B462100FFF76DF9013651
:1042D000050080E510230C930C230A009A430B92EF
:1042E0004B0503D501230B9A9A430B92692800D101
:1042F00027E6642800D124E60B9A802311009B0056
:1043000019408B461A4200D066E1802311005B0001
:1043100019408A461A4200D039E213005B0600D5E4
:104320003CE113001B0600D4A6E2099B04CB120457
:10433000120C934609935B46002B00D09AE10B9A2E
:104340001033110099430B91520500D492E10023E0
:104350009A460B9B06930A9B0593434604930C9B3A
:10436000039300230CE12023194360E6099B0A9A7A
:104370005B1B98464B4691461F00B2462600089CA0
:104380002A003B003100A04743460135585D002814
:10439000F6D14A463400B94656460A92F5E6C0239D
:1043A0009B00B078194302365DE5C023B07819430D
:1043B000023658E50C230A009A4314331A43103B83
:1043C0000B920C934B058DD496E7A14634005646CC
:1043D000DBE60A9A012A00D853E26B1E9F18089B5D
:1043E000B04626004C4699462A002300013531008C
:1043F0002020C847BD42F7D1A14634004646099B5C
:104400003A0001CB210098467D1C4B46089FC0B264
:10441000B847434601360993DDE40B9B0A9AA84648
:104420009A4200D8B5E694466544ED1A089B474683
:10443000B04626004C4699463A0023000137310029
:104440002020C847AF42F7D1A14634004646A0E637
:104450000B9A0A99531C914200D814E24B199B1AEB
:104460001F00089BB24626004C4699462A002300AE
:10447000013531002020C847BD42F7D10A9BA14633
:1044800001330B93099B34001B7856469C466046CB
:10449000002800D058E67CE60722099B07339343A7
:1044A000013294469C4462465F6809921A68FB1781
:1044B0001093119310981199030053400E930B0021
:1044C0007B400F9394460E9A0F9B121A8B410E92CB
:1044D0000F93FB0F6246129300233A439B463DD055
:1044E0000B9A6123920600D541230022DBB20EA96C
:1044F0000A3B8C4692460D9343461F326244139505
:10450000159655460E9E0F9FA24690460C9C1493FE
:104510000CE03032D2B2434601355A55BB4500D18A
:104520008AE1202D00D18AE106000F00220000233D
:1045300030003900FEF7CEFAD2B2092AE9D90D9B34
:104540009C466244D2B2E6E7FF23099904C91340AE
:104550001A00099117E5C0461D3300100B9A10335D
:10456000110099430B915205BAD500239A460B9B33
:1045700006930A9B0593434604930C9B0393129B5B
:1045800002935346019316AB2A00009321004B4639
:104590000898FEF713FF013605001CE4FF22099B73
:1045A00002CB11408B460993C5E653464546099315
:1045B0000136FFF710FC56465C46AA46139DD6E727
:1045C00008230C930B910B99642800D084E60B9B75
:1045D0005B0500D586E6B4E40722099B07339343C5
:1045E000013294469C44624609921A685B68100046
:1045F0009B4613005A46134307D10B9A1033110000
:1046000099430B91520500D5A1E60B9A61239206BE
:1046100000D541230022DBB20EA90A3B8C4692460C
:104620000D9343461F3262445F461295A34655469A
:104630000400B24690460C9E13930DE03032D2B285
:10464000434601355A550023BB4200D100E1202DDD
:1046500000D100E104000F003200002320003900E7
:10466000FEF738FAD2B2092AE8D90D9B9C4662447B
:10467000D2B2E5E70B9A6123920600D54123DBB263
:104680000EA90A3B1F228C460D93230062445C4610
:104690001295170055469B46B2460C9E08E03033F3
:1046A000DBB201357B55B4420ED3202D0CD0040073
:1046B00031002000FEF7D0F9CBB20929EFD90D9ACD
:1046C00094466344DBB2ECE756465C46AA46129D2C
:1046D0003FE6099B1A0008CAD91713925A184A4094
:1046E0009246DA0F1292002B08D1802310220B99E8
:1046F000DB000B4091430B91002B2BD10B9A6123D4
:10470000920600D541230EAA1F279446DBB20A3B2E
:104710000D9567445D460993A3465446B2460C9EE8
:1047200008E03033DBB201357B55B4420ED3202D87
:104730000CD0040031002000FEF78EF9CBB209291D
:10474000EFD9099A94466344DBB2ECE756465C46DF
:10475000AB460D9D0B9B2A0006930A9B21000593F7
:10476000434604930C9B08980393129B01360293D3
:104770005B46019316AB00934B46FEF71FFE139B5F
:1047800005000993FFF727FB02230C931AE7099B07
:1047900004CB92461293002A08D1802310220B9951
:1047A000DB000B4091430B91002B2BD10B9A612323
:1047B000920600D541230EAA1F279446DBB20A3B7E
:1047C0000D9567445D460993A3465446B2460C9E38
:1047D00008E03033DBB201357B55B4420ED3202DD7
:1047E0000CD0040031002000FEF736F9CBB20929C5
:1047F000EFD9099A94466344DBB2ECE756465C462F
:10480000AB460D9D0B9B2A0006930A9B2100059346
:10481000434604930C9B08980393002302935B4642
:10482000019316AB00934B46FEF7C8FD129B0500A3
:1048300009930136FFF7CFFAB44200D871E6149B12
:1048400054460E960F97AA469846159E139D8EE6DF
:10485000A64200D8FBE6139B56469846AA465C46FD
:10486000129D76E508C9D8171A1842400991FFF73A
:104870008AFB00230B9350E4099B04CB93460993D6
:1048800059E52F00BBE50B9301E6063B0C939AE636
:104890000CB410B584B006AC08CC0A00009401003A
:1048A00004480394FFF772FA04B010BC08BC02B0CD
:1048B0001847C0461533001000B585B0039101219B
:1048C00002900093034813004A4202A9FFF75EFAE0
:1048D00005B000BD9935001010B5094A03001468F1
:1048E00084B0002C08D0012200910648524203A94E
:1048F000A047012004B010BD00F09EF90020F9E7A8
:10490000702000208935001000BEFDE710B5FFF7CC
:10491000FBFFC04670B5FDF79FFF074D074EB54240
:1049200009D20024013E761BB60808CD9847230023
:104930000134B342F9D170BDA47C0010AC7C0010EE
:10494000030010B5080011001B68984710BDC04651
:10495000F0B546464F46D646C0B5437D80460E006C
:104960001700002B46D0002A3FDD4B1E9946244BF2
:104970000125002400209A460DE04B461B5D0D3BAF
:104980005A425341325DDBB20A2A0BD02B0001346C
:1049900001359F421ADD002CEFD14346325D1B7D6D
:1049A0000A2AF3D1002BF1D1A04204DA4346211A9E
:1049B0001B6830189847434650461B6802219847A9
:1049C000013428002B0001359F42E4DC874204DDDE
:1049D0004346391A1B6830189847F619013E337858
:1049E0000D3B5A42534142461375E0BCBA46B146AC
:1049F000A846F0BD0368110030009847F5E7C046AF
:104A0000D0850010F0B5C6460C000968060000B558
:104A1000802906D04B1C23606418267180BCB846E0
:104A2000F0BD0F4B1D68002D16D0231D98460D4F6D
:104A300002E02D69002D0FD02B68002BF9D03B68C8
:104A4000002B01D0AB42F4D1280041462268FFF789
:104A50007FFF2D69002DEFD101230021DBE7C04648
:104A6000601C0020681C0020F0B5DE4657464E460C
:104A70004546E0B585B017001C0006000D00FDF7A7
:104A80001FFC0023314A12184B41002B59DB3049DF
:104A900008008A4603F0C0F801906B1C03D1300077
:104AA00002F0D8FD0500002C26D12A4B98462A4B4F
:104AB0001C68002C15D0002F21D1284F02E024695A
:104AC000002C0ED02368002BF9D03B68002B01D0BE
:104AD000A342F4D120002A003100C0472469002CF1
:104AE000F0D1019B002B28D1280005B0F0BCBB46BB
:104AF000B246A946A046F0BD194B9846D7E7174BDA
:104B0000994602ABDF1D0A239B4602E02469002C74
:104B1000E7D02368002BF9D04B461B68002B01D04F
:104B2000A342F3D12A0031002000C0475B46012296
:104B3000390020003B70C047E8E7504603F03CF8DE
:104B4000D2E70122074B5242A1E7C04640420F0084
:104B50005011002041490010601C0020681C0020FA
:104B600051490010FFFFFF7F0A4A1368002B05D14F
:104B70000CE01A001B691032002B07D09842F8D1C4
:104B8000002902D103691360016170470029FCD03C
:104B90001060FAE7601C002010B500F003FB10BDA8
:104BA000F0B5CE46474680B583B06B460600DD1DA6
:104BB0002870FDF785FB00231A4A12184B41002B81
:104BC0002BDB19490800884603F026F8174B81466D
:104BD0001C68002C14D0164F02E02469002C0FD062
:104BE0002368002BF9D03B68002B01D0A342F4D1FD
:104BF000200001222900FFF7ABFE2469002CEFD131
:104C00004B46002B05D1300003B0C0BCB946B046BE
:104C1000F0BD404602F0D0FFF5E70122054B5242BD
:104C2000CFE7C04640420F0050110020601C00201A
:104C3000681C0020FFFFFF7F70B5040002F00AFD32
:104C400001230100050001222000FFF70DFF084BA2
:104C50001C68002C06D06368002B05D09847246997
:104C6000002CF8D1280070BD2469002CF3D1F9E79D
:104C7000601C0020F0B5CE46474680B5A5B00400C4
:104C80000D00FDF71DFB00232A4A12184B41002B93
:104C900049DB294E300002F0BFFF002307000393D9
:104CA00022002B00254803A9FFF706FE039B804640
:104CB000002B14D1224B1C68002C06D06368002BFB
:104CC0000BD098472469002CF8D1002F27D14046FB
:104CD00025B0C0BCB946B046F0BD2469ECE7184B1E
:104CE0001D689946002D22D0164C02E02D69002D3A
:104CF00011D02B68002BF9D02368002B01D09D42E6
:104D0000F4D1039B28001A0004A90193FFF720FEA9
:104D10002D69002DEDD14B4603951C68CCE7300082
:104D200002F04AFFD3E70122074B5242B1E7039555
:104D3000CBE7C04640420F0050110020054A00104A
:104D4000601C0020681C0020FFFFFF7F0FB400B52F
:104D500083B004A901C90191FFF78CFF03B008BC1F
:104D600004B018477047C0460022014B1A707047C4
:104D7000C72100204B790020FF2B0BD18B79002B12
:104D800008D1CB79012B05D1082A03D98A78024BA7
:104D900009301A707047C046C721002001207047B3
:104DA00010B5012909D115495379107909781B02E9
:104DB00003430020994202D010BD0120FCE7537844
:104DC000012B08D0022BF7D1002064220021FDF72F
:104DD0008DFC0120F0E7D37891781B021943DB05A5
:104DE00007D54A0A100001231A407E331940FDF707
:104DF00003FD01204A0A4042F5E7C046C7210020D2
:104E000000487047F485001070B5050014000120BB
:104E1000012909D153780020012B05D1637912793A
:104E20001B021343072B00D070BD21002800024A4B
:104E30009F3301F04FFAF7E7188600100123037043
:104E400000487047D485001048780B788A780002B3
:104E50001843120410439622CB7810B51B06034367
:104E6000D200934200D010BD002201201100404228
:104E7000FDF7C2FC024B1860024B19607047C04638
:104E8000001C0020041C002010B5024B1878FCF711
:104E9000BBFB10BDC8210020154B70B51A68002A55
:104EA00022D0EFF3108172B610680028FCD0BFF357
:104EB0005F8F00220F48596002701B68BFF35F8F3D
:104EC0001A6081F31088002400250B4E3078FCF71F
:104ED0008FFB002804D1002400252900200070BD8C
:104EE0003078FCF791FBF8E7FA240025A400ECE702
:104EF0007C200020C9210020C821002070B50400BA
:104F000000200E0001F008FB002835D0002001F041
:104F10001BFB002830D0FDF7D3F90023184A1218E4
:104F20004B41002B24DB174D280002F075FE0028B2
:104F300022D0002001F0F0FA00280BD1012000213E
:104F40000324404200F0F8FC6442280002F034FEE2
:104F5000200070BD002001F0F7FA0028EED02100FB
:104F60003200002001F0FCFA041EEED1033CECE715
:104F70000122054B5242D6E703246442E8E7C046CB
:104F800040420F00A4210020FFFFFF7F10B5FDF776
:104F900097F900230E4A12184B41002B13DB0D4CDE
:104FA000200002F039FE00280CD0012000214042F0
:104FB00000F0C2FC002001F01FFB0028F5D120000A
:104FC00002F0FAFD10BD0122034B5242E7E7C04652
:104FD00040420F00A4210020FFFFFF7FF8B5DE460E
:104FE000574680B505000C00FDF76AF90023364AE4
:104FF00012184B41002B5ADB344908008A4602F054
:105000000BFE002803D1C0BCBB46B246F8BD002051
:1050100001F082FA00284ED00026002C43DD2C4BF4
:105020009B4614E0A919002001F022FB0700012093
:105030000021404200F080FC002001F0DDFAFDF785
:105040003FF9234BF61918605960B4422BDD00205C
:1050500001F030FBA71B0200B84200DD3A00002A35
:10506000E0D101200021404200F066FC002001F068
:10507000C3FA002001F050FA002814D0002001F0FB
:1050800019FB0028E1D1FDF71BF95B460F001A68F8
:105090005B68002184460F4812184B419F4202D89A
:1050A000D3D19445D1D9504602F086FDABE7012219
:1050B000094B5242A0E700200021054B18605960BF
:1050C000504602F079FD9EE740420F00A4210020E7
:1050D000D812002020A10700FFFFFF7F30B52A4C27
:1050E00085B00021200002F07FFD00281CD1274B55
:1050F0001A68002A16D0EFF3108172B610680028E3
:10510000FCD0BFF35F8F01242148596002781B68EF
:10511000D2B20470BFF35F8F0020186081F3108853
:10512000002A17D005B030BD01200021404200F018
:1051300003FC002001F008FA0500200002F03CFD0D
:10514000002DEFD0134B1B68002BEBD0124A1068D8
:105150009847E7E7FCF7B0FE0400FDF7B1F8FA2244
:105160000023920012184B41002B09DB0121029110
:1051700000210191094920000091FCF7A1FED1E72F
:105180000122074B5242F1E7A42100207C2000209D
:10519000C9210020001C0020041C0020994E001092
:1051A000FFFFFF7FD02310B51B0684B01C68FCF7FF
:1051B00083FEFCF77FFFA04202D0002004B010BDA8
:1051C000284B1B7801F098FD27480368002B41D03D
:1051D0000120FCF7F7FBFF23244C254920701840E1
:1051E000FCF730FA20780121FCF7F0F90520FCF7F4
:1051F00013FA002821D1082200211E48FEF77EF86C
:10520000FCF75AFE0400FDF75BF8FA220023920037
:1052100012184B41002B20DB01210291002101914A
:10522000154920000091FCF74BFE0028C5DB134810
:105230000121FFF799FC0120C0E70120FCF796F956
:1052400001000C48FCF724FC002205200C49FCF767
:1052500023FAECE7FCF7FEFBBAE70122094B5242C6
:10526000DAE7C046EC880010A4210020C821002005
:10527000DD5000107C200020994E001010110020FD
:10528000894E0010FFFFFF7F0048704760870010C5
:10529000004870470C87001070B504001748037869
:1052A000002B21D0002C06D1C1241548154BA40099
:1052B0004380048070BD052C1DD8134B1048A400FA
:1052C000E558811C002304E001330A800231132BCE
:1052D0000ED0EA5CDCB2002AF6D1C0230134E4B27D
:1052E00064009B001C43E4E7112100F017F8D9E7A4
:1052F000CA24A400DDE70020DCE7C046B02100207E
:10530000381C0020090400007487001010B5024802
:1053100000F0D8F810BDC0469420002030B54B1ED8
:10532000012900D1A7E0664A11780D112C00303414
:105330009F2900D9A2E00470012B00D1BEE00F210B
:10534000147821400C003034092900DD98E04470C5
:10535000022B00D1B2E054782511290030319F2C66
:1053600000D990E08170032B00D1A7E00F212140EC
:105370000C003034092900DD87E0C470042B00D113
:105380009CE094782511290030319F2C00D97FE0D2
:105390000171052B00D191E00F2121400C00303428
:1053A000092900DD76E04471062B00D186E0D4782F
:1053B0002511290030319F2C00D96EE08171072B17
:1053C00000D17BE00F2121400C003034092966DC3C
:1053D000C471082B00D171E01479251129003031F6
:1053E0009F2C5FD80172092B68D00F2121400C003F
:1053F0003034092958DC44720A2B5FD054792511C6
:10540000290030319F2C52D881720B2B56D00F219E
:1054100021400C00303409294BDCC4720C2B4DD0D8
:1054200094792511290030319F2C00D9073101735F
:105430000D2B43D00F2121400C003034092901DD10
:1054400037310C0044730E2B38D0D1790C11220067
:1054500030329F2900D9073282730F2B2ED00F22B2
:105460000A4011003731092A01DC30321100C173C2
:10547000102B23D010300023037030BD07345AE7BF
:1054800037310C0063E707316CE737310C0074E704
:1054900007317DE737310C0085E707318EE737317B
:1054A0000C0095E707319DE737310C00A3E7073182
:1054B000AAE737310C00C4720C2BB1D1C018DAE75F
:1054C0009420002030B5002589B004000922002175
:1054D00001A80095FDF712FF0922002105A80495F7
:1054E000FDF70CFF4B236A466846137004A90D2292
:1054F00002F05AFB1521082220006944FDF704FF41
:1055000009B030BDF8B500F03DF90C23184DFF226D
:10551000AB6705201749FCF7BFF8174C4022002164
:105520002000FDF7EBFE4027002301262121134A2E
:1055300066702783A260136063545F3161844539CC
:1055400063540F4A0F496360E2602787A1620B60D2
:105550006362E26202F080FB80239B052E64EB64B1
:105560009023094AEA508022084B5202DA64F8BDBF
:1055700000001150F9040020701C0020840010501D
:10558000000110508000105010D001000020115078
:1055900010B501210520FCF719F810BD10B5002247
:1055A0000021024800F00EF910BDC046901C0020FA
:1055B000044B1970002904D080219023024A8902EB
:1055C000D1507047C2210020002011500B785B069B
:1055D00002D14B78052B00D070478A78014B1A60B6
:1055E000FAE7C04600001150F0B5C64600B54B7949
:1055F0000C791B0288782343CC787F21A4070140D3
:10560000C509A20F4F001400324E7A195201B21888
:10561000907001206840507000205B055B0DD070D9
:105620001383D4768046CA00012D33D02A4884469D
:10563000880162448446B4446046826040461060FB
:10564000002933D0254AC900904662464144516042
:105650003F223F339343022C00D15B0020487A194C
:1056600001685201B218D1601E4ACB180360514044
:105670005340802288465201934228D84346A406CC
:105680001C4380237F197F011B06F6191C43736896
:105690001C6011E014488446880162448446B44486
:1056A0006046826240461060002909D100236D01E6
:1056B000761973600D4BF360012080BCB846F0BDD5
:1056C000084AC9009046624641445162C0E7FDF76E
:1056D000BDF8D3E7701C0020840010500400105067
:1056E0007820002000001050800010500001105061
:1056F00010B502F0B1FA10BD10B57F200C002040AB
:105700004000E409110000191A00034B4001C018C1
:1057100000F058F8012010BD701C00207F221300FB
:1057200010B50B400A420BD0C9098022580040181E
:105730000649400140181201002102F085FA10BD0F
:1057400002220348C909521A8266EEE7701C002043
:10575000002011507F22100010B508400A4200D1ED
:1057600010BD0023C9094000401804494001081831
:1057700000220349C37002F067FAF1E7701C0020B1
:10578000FFF7FFFF80220A4B520410B51A60094B45
:1057900009491A6010000B689843FBD18022002150
:1057A00052010648FDF7AAFD0922054B5A6710BDB4
:1057B00000E0004000F0004008C000400000105031
:1057C0000000115070B5837E04000D001600002B00
:1057D00017D10023E38201332000A682A37625613E
:1057E00002F012FA002804D080219023084A89028E
:1057F000D150200002F0D0F9002805D001232377F2
:1058000070BD02F019FAE4E7200002F00DFAF7E7A4
:10581000002011507047C0467047C04600207047B6
:10582000002070477047C0467047C0467047C0466A
:105830007047C046024B5878431E9841C0B270472B
:1058400028170020024B18784007C00F7047C04649
:1058500028170020F8B54746CE4680B52B4F804626
:105860003B780120FF2B03D0C0BCB946B046F8BD41
:10587000002154222648FDF741FD0022254C264BED
:1058800020001A70FCF7E6F8244B1C60244C200022
:105890001430FCF7EDF8200001F0F8FC214B224D0C
:1058A0001C60224B002B04D02800FFF7C7FA204BC6
:1058B000186020490024002389462A781C4E10E0F5
:1058C0003268630194466344002B12D05B68002B5E
:1058D0000FD098472A780134E4B2511C2300A1422A
:1058E00009DBA242ECD89B1A5B014B445B68002B9E
:1058F000EFD10020B8E7434640463B70FFF702FE79
:105900004046FFF745FE0120AEE7C04644110020A7
:1059100028170020E0160020C32100207C1700205B
:105920002811002080170020C12100203D4E0010CA
:10593000FC13002090880010F0B5DE4657464E4616
:105940004546E0B5C44B8BB01B78FF2B00D12EE150
:10595000C24BC34D9A4607AC2E687269EFF31081B3
:1059600072B61368002BFCD0BFF35F8FB1613000BB
:10597000210001F0CDFA7269B369BFF35F8F002196
:10598000116083F31088002800D110E16378082BA0
:10599000E2D852469B00D3589F466368002BDBD069
:1059A000A0689847D8E77F232179AE4E0B40580076
:1059B000CA093618B6183200012730321079B843B8
:1059C000107110790337B8431071002B00D1F7E044
:1059D000A54A337D1278934200D3E5E0A34A5B01E8
:1059E0001268D318002B00D1E1E09E69627920781B
:1059F000A368B047B0E79E4A1378002B00D1D6E0E9
:105A00001378013BDBB213701378002BA4D1012271
:105A1000944B01211B7893481343924A914E137083
:105A20003423D25C8A43C254C25C04208243F254C1
:105A30000133F25C8A43F254F25C8243F2542378DD
:105A400000209B4600F0AEFC602223791A40602AB9
:105A50000DD0402A00D1BEE0DB06DB0E012B00D1C9
:105A60000EE1022B00D1D0E0002B00D1BFE0207866
:105A70000021FFF753FE80212078FFF74FFE6BE7F0
:105A8000784E3378DB0700D466E7FFF7D1FE63E793
:105A9000744BDB78DB0700D45EE76068FFF7BCFE81
:105AA0005AE7704E3378DB0700D455E730780007AB
:105AB000C00FFFF7BBFE4FE76E496B4E23788B4656
:105AC0006A499846894631003278002346460027C5
:105AD000884611E04A4612687B0194466344002BD5
