:020000041000EA
:1000000000B5324B212058609868022188439860DF
:10001000D860186158612E4B002199600221596106
:100020000121F02299502B49196001219960352056
:1000300000F044F80222904214D00621196600F024
:1000400034F8196E01211966002018661A6600F04E
:100050002CF8196E196E196E052000F02FF8012189
:100060000842F9D1002199601B49196000215960AB
:100070001A491B48016001219960EB211966A021F2
:10008000196600F012F800219960164914480160C1
:100090000121996001BC002800D000471248134993
:1000A000086003C880F30888084703B5996A0420EC
:1000B0000142FBD001200142F8D103BD02B5186610
:1000C0001866FFF7F2FF186E186E02BD00000240BE
:1000D000000000180000070000035F00212200005C
:1000E000F4000018222000A00001001008ED00E03C
:1000F00000000000000000000000000074B24E7A12
:1001000000200420F7010010C3010010C5010010F9
:10011000C1010010C1010010C1010010C101001097
:10012000C1010010C1010010C1010010C701001081
:10013000C1010010C1010010C9010010CB01001065
:10014000CD010010CD010010CD010010CD01001037
:10015000CD010010CD010010CD010010CD01001027
:10016000CD010010CD010010CD010010CD01001017
:10017000CD010010CD010010CD010010CD01001007
:10018000CD010010CD010010CD010010CD010010F7
:10019000CD010010CD010010CD010010CD010010E7
:1001A000CD010010CD010010CD010010CD010010D7
:1001B000CD010010CD010010CD010010CD010010C7
:1001C00000BE00BE00BE00BE00BE00BEEFF3058054
:1001D000103800BEF2EB887168560510885605107D
:1001E0003802001090A31AE71E481F49086006C88D
:1001F00081F3088810471D480068002801D019487D
:10020000F3E70DA40ECC002902D000F012F8F9E7B4
:100210001749184A002000E001C19142FCD116495B
:100220008847164988471649884700BEFDE701C937
:1002300001C29A42FBD3704788560510E0000020A7
:10024000F01200209868051000000420000004202F
:100250009868051000100420001004200000000021
:10026000704700000000000008ED00E0000000D032
:10027000F012002088E100205D720110AD06001030
:1002800055720110F8B5C04610B5064C2378002B06
:1002900007D1054B002B02D0044800E000BF01232A
:1002A000237010BDC815002000000000149F01102D
:1002B000044B10B5002B03D00349044800E000BFF5
:1002C00010BDC04600000000CC150020149F011096
:1002D00030B503000C00150083B0012806D00020C3
:1002E000022B43D0002B2BD003B030BD0422802141
:1002F000274B49001A60274A13680B42FCD050680C
:100300000004000C15F03AFC234915F0FCFBE62133
:10031000890515F0F8FB214915F0DBFB204915F0A4
:10032000DEFB011C1F4815F0D4FB15F049FC1E4AEA
:10033000009001912900200016F04EFF80B2D3E713
:1003400004228021124B49001A60124A13680B42A2
:10035000FCD050680004000C15F010FC0E4915F09C
:10036000D2FBE621890515F0CEFBDEE70EF0E8FCB6
:10037000002806D0290020000C4A16F02DFF80B27C
:10038000B2E7290020000A4A16F026FF80B2ABE748
:1003900000E0044000C00440333353406ABC343FA3
:1003A0002D93E13A0000D841189F01101C9F0110C5
:1003B000209F0110F0B54E46DE4657464546E0B553
:1003C00083B00E1E019258DD1D008C4B002499460F
:1003D0000CE02B681A78302A57D15978002954D16B
:1003E0000EF0A4FC01340435A64246D0019AA300C5
:1003F000D7584946380019F02BFC0028E9D03800BE
:100400007F4919F025FC002847D101237D4F9B46E9
:100410003B702B687C4918009A4619F019FC8046FD
:10042000002800D17CE05046784919F011FC0028E2
:1004300000D1B1E05046764919F00AFC002800D1FD
:10044000BDE05046734919F003FC002800D193E049
:100450005046714919F0FCFB0028C3D16F4BFF22B5
:1004600018706F4B0021013438701870043500F09B
:1004700017FA00F011FBA642B8D16A4803B0F0BCED
:10048000BB46B246A946A046F0BD312AAAD15B7848
:10049000002BA7D101210020A2E73800624919F002
:1004A000D7FB002815D1286803786F2B08D1437833
:1004B0006E2B05D18378002B02D100F037FB91E73A
:1004C0005A4919F0C5FB002800D08BE700F03CFB2F
:1004D00088E73800564919F0BBFB002800D081E7B7
:1004E0002B6854491800984619F0B2FB002875D0C3
:1004F0004046514919F0ACFB00287AD040464F499C
:1005000019F0A6FB00286ED04046484919F0A0FB20
:10051000002800D066E70022002100F0C1F961E761
:1005200000F05CFB464915F01DFB002813D0434644
:1005300042463B70394B1A70394B1A7000F0ACFAD6
:10054000FF220021002000F0ABF9FA213D484900CC
:1005500000F006FB46E75B463B70304B1870304BB3
:100560001870FA2000F020FA0022FF21002000F08D
:1005700097F900F0E9FA35E75A46294B1A70274BEC
:100580001870FA3000F060FA00F0DEFA0022FF2165
:10059000002000F085F925E7204B00221870204B41
:1005A000002118703870FF3000F07AF9FA2000F05E
:1005B000D3F9FA212448890000F0D2FA12E75A460A
:1005C000164BFF211A70164B0022187000F068F9C4
:1005D000FA2000F011FA00F0B7FA03E7FF22002139
:1005E00000F05EF9FEE600220021FF3000F058F92D
:1005F000F8E60022FF2100F053F9F3E6A0BE011057
:10060000249F011079E100202C9F0110349F0110DC
:10061000409F0110489F0110509F01107AE1002077
:100620007BE10020809F0110589F0110609F011006
:10063000649F01106C9F0110709F0110789F011042
:1006400000002041A86100001027000010B519F03B
:1006500009FA0222084B09491A60094B09481A682D
:100660008023DB015340E022D2011340064A13608D
:10067000032214F03BFD10BD00E00440B81100203F
:1006800000C00440D102001000D0044010B500F0BA
:1006900025F900F023FA00F0B9F800F08DFA0121F5
:1006A000014814F047FD10BDD4A0011070B516F03C
:1006B00017FF424801F0B8FC414816F061FF0EF008
:1006C00055FB002874D13F4816F05AFF0EF0D2FABD
:1006D0003D4816F055FF3D4E3D4D3E4C06E0300086
:1006E00016F04EFFFA20800001F09EFC2900200049
:1006F000324B394A0EF0CCFA0028F0D1374816F0C8
:100700003FFF374B186804300EF036F901003548CA
:1007100016F0C0FF14F0BCFC334816F031FFFFF7B1
:1007200095FF324816F02CFFFFF7B0FF304816F067
:1007300027FF304C304D314E10E000F0ADF9FF2274
:100740000021002000F0ACF8FA212D48490000F00B
:1007500007FA00232370642001F066FC00F03EFAE3
:100760002378002BF7D0274915F0FCF90028E4D1B5
:100770002B78002B13D13378FA20002B07D000F010
:1007800063F90022FF21002000F08AF8E3E700F07F
:100790000BF90022FF21002000F082F8DBE7FA20AD
:1007A00000F02AF90022FF21002000F079F8D2E7BA
:1007B000154816F0E5FE0120404270BD10270000EC
:1007C000909F0110D09F0110EC9F011008A0011014
:1007D000B8A00110C4A001100400400030A0011016
:1007E000F8CF002044A0011054A001106CA001100B
:1007F00084A0011079E100207AE100207BE1002053
:10080000A861000000002041AC9F011010B5042138
:10081000062002F007F90421072002F003F9042161
:10082000082002F0FFF84022144B15491A641A649C
:100830005A65BF32DA64DA641A660B68114A1B041F
:100840001B0C13600B6810491B0C1B0413600F4B2F
:100850000F4A1B681B041B0C1360012318000A6855
:1008600090430C4A106018000968884310600A4AD7
:1008700012689343094A136010BDC046000005404A
:1008800048000540481005403C0005405C0005401C
:100890005C1005403C1005405000054050100540DC
:1008A00010B50A4C0904236858400004084B000C9A
:1008B000186020684140090C09041960054B1B6849
:1008C0005A401204044B120C1A6010BD4800054037
:1008D000481005405C0005405C100540F8B500205C
:1008E00002F046F9012002F043F90C2002F040F931
:1008F000122002F03DF9D023012402221B065C6283
:100900005A62802252015A628022FF274026D20278
:100910005A620421022002F085F82200094D0A4B98
:100920006F62AE611B6804219A43084B1B201A605A
:1009300002F078F8064B6F67AE661B689C43054B68
:100940001C60F8BD0000054014000540141005406F
:100950006400054064100540D02301221B065A6143
:1009600001329A61802252019A618022D2025A6138
:10097000094B40081A6803000F3353401B04074A11
:100980001B0C1360064B00041B685840000C054B01
:10099000000418607047C046200005402010054044
:1009A0007000054070100540D02301221B069A619B
:1009B00001325A61802252015A618022D2029A6128
:1009C000094B40081A680300123353401B04074ABE
:1009D0001B0C1360064B00041B685840000C054BB1
:1009E000000418607047C0462000054020100540F4
:1009F0007000054070100540D02301221B069A614B
:100A000001325A61802252015A618022D2029A61D7
:100A1000094B40081A680300183353401B04074A67
:100A20001B0C1360064B00041B685840000C054B60
:100A3000000418607047C0462000054020100540A3
:100A40007000054070100540D02301221B069A61FA
:100A500001325A61802252015A618022D2029A6187
:100A6000094B40081A680300123353401B04074A1D
:100A70001B0C1360064B06301B6800045840000C2A
:100A8000044B00041860704720000540201005400A
:100A90007000054070100540D02301221B069A61AA
:100AA00001329A61802252019A618022D2029A61B7
:100AB000064B074A1B681B041B0C1360054B064AB8
:100AC0001B681B0C1B0413607047C04620000540C8
:100AD00020100540700005407010054010B504213D
:100AE000042001F09FFF02220A4B1A600A4B3E329B
:100AF000DA62FA2292009A63084B094A1B681B04C7
:100B00001B0C1360074B1A6801239343064A1360BA
:100B100010BDC04600E10020000005403400054043
:100B2000341005402800054028100540044B1A6881
:100B3000FA235B0053401B04024A1B0C13607047EE
:100B40003400054034100540034B044A1B681B0465
:100B50001B0C13607047C04634000540341005403C
:100B600070B50C0001000F4814F00AFC0E4B020493
:100B700019680E4D8B005B180D499B008C46120CBA
:100B800063441A612A68C003030C5340094E1B04D6
:100B90001B0C3360200001F047FA2B681B041B0C70
:100BA000336070BD4059730700E1002034000540F8
:100BB000000005403410054010B50F2001F0D8FFAB
:100BC000D024802324061B0263620E20A36101F05F
:100BD000CFFF8023DB01A36210BDC046F0B5D02457
:100BE000802524062D0265610A20002183B001F0D2
:100BF00009FAA56101F0B4FA00252E4C24184D41E4
:100C0000002D4EDBD02780263F06F60107E001F0DD
:100C1000A7FA22002B00121A8B41002B3DDB7B68C8
:100C20003342F4D001F09CFA00250090019101F0CC
:100C300097FA204C24184D41002D36DBD027802612
:100C40003F06F60107E001F08BFA22002B00121A92
:100C50008B41002B21DB7B683342F4D101F080FA19
:100C6000009B019CC01AA14114F098FE124A134B3C
:100C700014F0E5FD0022124B14F0E1FD14F096FE95
:100C80001049041C14F074FF002806D18021201C98
:100C9000C90514F067FF002800D00B4C201C03B0DE
:100CA000F0BD0124094D6442ACE70124074D6442C4
:100CB000C4E7C046204E0000006F8104C58FA13FED
:100CC0000000E03F0000C843000080BFFFFFFF7F3F
:100CD00010B508F0E1F810BD0123F0B50B7283B038
:100CE000040008F00DF90500431C0DD11249134B07
:100CF0001A685B68009201938A60CB6023682000C9
:100D00005B69984703B0F0BD01F02AFAFA220600A9
:100D10000F00002328000021920014F0BDFE3618B9
:100D20004F41002F03DB04498E60CF60E6E70126C8
:100D3000034F7642F7E7C046D811002008A1011002
:100D4000FFFFFF7F70B5094D04002B78002B08D002
:100D50000123074920000B722368DB6998470120B3
:100D600070BD01F0DDFF01232B70F1E775E100207C
:100D7000C411002010B50400036804499B6998471A
:100D8000236820001B6A0249984710BDD811002033
:100D9000C4110020002070477047C04610B501F014
:100DA000DFF9002905D0FA220023920014F026FB77
:100DB00010BDFA21890014F0E3FAF9E70200836814
:100DC0000832002B04D107E01A001B68002B03D067
:100DD0009942F9D1002003E00023012011600B604B
:100DE0007047C0468368002B08D0994202D107E0C3
:100DF000994207D01A001B68002BF9D100207047D8
:100E0000020008320B6801201360F8E74368021DF6
:100E1000002B04D107E01A001B68002B03D0994275
:100E2000F9D1002003E00023012011600B6070471E
:100E30004368002B08D0994202D107E0994206D0BE
:100E40001A001B68002BF9D100207047021D0B68A7
:100E500001201360F9E7C046F8B54746CE468368DF
:100E6000804680B5002B29D008234344994601F0E1
:100E700077F943469E6804000D00002E58D00023E9
:100E80004F469C46B268F36820002900801A9941B9
:100E9000002902DB14001D00BC4637003668002E16
:100EA000F0D16346002B43D0196840460A681A60A7
:100EB0004B68984743469B68002BD8D143465C68F3
:100EC000002C31D00025237A002B29D02100636823
:100ED0002572404698472468002CF4D1174B1868B7
:100EE000596843469E68002E04D112E02000290074
:100EF000002E0ED0330002009C68DD680B00121B30
:100F0000AB413668002BF1DCF2D1002AEED1002E85
:100F1000F0D1434618615961C0BCB946B046F8BD2E
:100F20002468002CCFD1D9E7044B18685968F0E742
:100F300043465C68002CC5D1D0E7C04608A101102B
:100F40008023DB051868000F7047C0460FB400B55A
:100F5000084883B016F014FB049B002B07D005A9AA
:100F60001800019116F05CF9034816F009FB012006
:100F700016F06EF9DCA00110EC320510104A114B8E
:100F800010B512184B419900900F0843990F50402B
:100F900059400D4A0D4B14F07FFD03004A01C00E6D
:100FA0001043CA0E58405140094B0A4A14F074FDD0
:100FB00003004A00C00F1043CA0F5840514010BDF3
:100FC000157C4A7FB979379EB9E5E41C6D4758BF57
:100FD000BB49D094EB113113F0B5046845680600A5
:100FE00023002A00C6468068F16803430A4300B51F
:100FF000134304D101F0B4F803000B43FAD02A06DE
:10100000230A6040270613432A0A3A43070CBC46CA
:1010100069404B40984663460F041F434240030417
:101020005A4043467B4032607360C20E4B0113430B
:10103000C90E40010843B360A10FAB000B43A200EF
:10104000A4185D41EB01620E1A43E4016B0E2343C9
:10105000F0601E0017005B0FD100F00019438019EB
:10106000794180BCB846F0BDF0B5DE4657464E46E5
:101070004546E0B5B84B8DB01B78002B00D1ECE0B5
:1010800008AB9846B54BB64C0393B64BB64F04939A
:1010900010220499404614F0DBFDB44B1B78DBB200
:1010A000059301F05DF8FFF769FF089B5840434640
:1010B0005B680890594043465960AD4B9B69DB041F
:1010C00000D5C0E014F050F8EFF305839B46B94615
:1010D0005F46A84B256866689A4628003100002FB5
:1010E0001AD001F047F8EFF3108272B653461B682E
:1010F000002BFBD0BFF35F8F2368AB420FD0BFF351
:101100005F8F00215346196082F310882568666856
:1011100028003100002FE4D100F00CFFE3E7636802
:10112000B342ECD10125924B1600D8694F460540D9
:1011300001F016F80A22002380185941002900DA2C
:101140007DE03A687B6892185B412060616028000E
:101150001C00130010430093019438607C60BFF3BF
:101160005F8F0024834A146086F310880199FFF78B
:1011700005FF43469B68804A58404346DB689446D7
:10118000594043469860D960039B7C4A1B78DB003A
:101190006344986890425ED00021FFF7EFFE089B01
:1011A000584043465B680890594043465960EFF306
:1011B000108572B66F4A1368002BFCD0BFF35F8FA7
:1011C0006A4B059A1B78934219D0049940460B68E4
:1011D00040681A00089B5A40089242464B684340B8
:1011E00053608B6800934346009A9B685A40CB68D3
:1011F0004146C96800934B4041468A60CB604046F7
:10120000FFF7EAFE102206000C000498414614F095
:101210001FFD564B554A1B780133DBB21370BFF3E9
:101220005F8F0022534B1A6085F310883000210035
:101230000DB0F0BCBB46B246A946A046F0BD0120A9
:101240004F4940427DE74F4BDA6BE0231340402B80
:1012500000D039E736E79C609EE74B4B994618680B
:1012600059684A4B9C464A4B9846830E8F011F4350
:101270008601030C0D041D4332003B0004041219C7
:101280006B41121A8B41614601C98C4600210090C6
:1012900001910098019980185941C445E5D14B4608
:1012A00018605960FFF76AFE08AB9846089B5840E3
:1012B00043465B6808905940434606A8596000F0D1
:1012C00021F906980799FFF759FE43469B68584055
:1012D0004346DB68594043469860D960244B9B697C
:1012E000DB0436D5274BDA6BE0231340402B30D09C
:1012F000EFF305839A4640230024039300231D4FF8
:1013000000930194164C00239B465346256866685B
:1013100028003100002B19D000F02CFFEFF31089CA
:1013200072B63B68002BFCD0BFF35F8F2368AB42E3
:1013300030D0BFF35F8F5B463B6089F31088534624
:101340002568666828003100002BE5D100F0F2FD29
:10135000E4E713F009FFCBE782E1002072E100200F
:10136000C0140020C8000020D800002073E1002035
:1013700000000640300100D000000340FFFFFF00E6
:10138000FFFFFF7F00800040C0000020001C042001
:10139000002004206368B342CBD1009A019B100067
:1013A000190080185941484BDA690123134003435F
:1013B0000093019100F0D4FE0A22002380185941C5
:1013C000002949DB039B20606160012B3AD1009822
:1013D00001993E4F38607960BFF35F8F00233C4D29
:1013E0002B6089F31088FFF7C9FD089B58404346DE
:1013F0005B68089059404346596000F0B1FEFFF722
:10140000BDFD43469B6858404346DB685940434610
:101410009860D960EFF3108672B62B68002BFCD071
:10142000BFF35F8F2B4B1B78002B19D02A4B0393F4
:101430002A4B0493BFF35F8F0022254B1A6086F37B
:10144000108825E6BFF35F8F00233B6089F3108887
:10145000039B013B039356E7012021494042B1E73A
:10146000204BDA681F2A23D05A691F2A22D0DA6952
:101470001F2A25D05B6A1F2B1FD013F075FEFF2299
:10148000FF231549DB000A70174A03919446052291
:1014900063445A604046FFF79FFD104B102218002E
:1014A0004146049314F0D4FB01230A4A1370C1E7A8
:1014B00000230393039BDAB2E3E71C3B0393F9E7B2
:1014C00002230393F6E7C04600000640D800002040
:1014D000300100D082E1002072E10020C80000202D
:1014E000FFFFFF7F000003400800034010B5FFF737
:1014F000BBFD10BD10B5024800F0E0F810BDC046BD
:10150000ECDF002010B50822014914F0A1FB10BD4A
:10151000ECDF002030B54B1E012900D1A7E0664A60
:1015200011780D112C0030349F2900D9A2E00470ED
:10153000012B00D1BEE00F21147821400C00303483
:10154000092900DD98E04470022B00D1B2E0547804
:101550002511290030319F2C00D990E08170032B98
:1015600000D1A7E00F2121400C003034092900DD13
:1015700087E0C470042B00D19CE0947825112900E9
:1015800030319F2C00D97FE00171052B00D191E013
:101590000F2121400C003034092900DD76E0447130
:1015A000062B00D186E0D4782511290030319F2CFC
:1015B00000D96EE08171072B00D17BE00F21214023
:1015C0000C003034092966DCC471082B00D171E0AD
:1015D00014792511290030319F2C5FD80172092B15
:1015E00068D00F2121400C003034092958DC4472A6
:1015F0000A2B5FD054792511290030319F2C52D805
:1016000081720B2B56D00F2121400C003034092958
:101610004BDCC4720C2B4DD094792511290030314C
:101620009F2C00D9073101730D2B43D00F2121408E
:101630000C003034092901DD37310C0044730E2BC6
:1016400038D0D1790C11220030329F2900D90732CD
:1016500082730F2B2ED00F220A4011003731092A36
:1016600001DC30321100C173102B23D01030002365
:10167000037030BD07345AE737310C0063E7073198
:101680006CE737310C0074E707317DE737310C0028
:1016900085E707318EE737310C0095E707319DE785
:1016A00037310C00A3E70731AAE737310C00C472C9
:1016B0000C2BB1D1C018DAE7ECDF002030B50025E3
:1016C00089B004000922002101A8009514F0BAFA9B
:1016D0000922002105A8049514F0B4FA4B236A46A8
:1016E0006846137004A90D2218F06AFB1521082220
:1016F0002000694414F0ACFA09B030BDEFF310805B
:1017000072B6034A1368002BFCD0BFF35F8F70479B
:101710002C0100D0BFF35F8F0022024B1A6080F3D0
:10172000108870472C0100D070B5EFF3108C72B6A2
:101730000D4D2B68002BFCD0BFF35F8F0724CB0827
:10174000C618C05C01230C40A3401C0004400342A7
:1017500007D103433370BFF35F8F2C608CF3108885
:1017600070BD1000FFF7F2FB2C0100D0F8B5474622
:10177000CE46884680B5EFF3108C72B6214D2C68AA
:10178000002CFCD0BFF35F8F9A422CD8D4080727D7
:10179000055D061901241740BC402C421FD00721CB
:1017A0000127894609E0D408055D06194C46390031
:1017B0001440A1400C00294211D001329342F2D2D0
:1017C00001204042BFF35F8F00220E4B1A608CF362
:1017D000108800280FDBC0BCB946B046F8BD2C43CA
:1017E00010003470EEE7BFF35F8F00232B608CF3A3
:1017F0001088012040424346002BECD00898FFF7A8
:10180000A5FBC0462C0100D030B5EFF3108C72B6AA
:101810000A4C2368002BFCD0BFF35F8F0723012203
:10182000CD0819408A40435D93434355BFF35F8F12
:10183000002323608CF3108830BDC0462C0100D0FB
:10184000044A1078431CDBB2172B00D91023137005
:101850007047C046F011002000B5054B83B0010071
:10186000009318221F230348FFF780FF03B000BD39
:10187000ECA00110181F00200021044B044ABFF304
:101880005F8F02C39342FAD17047C046000100D077
:10189000800100D0142310B50100188804331B8880
:1018A000984710BD162310B50100188802331B8815
:1018B000984710BDF8B54746CE4680B50F1E19D0E3
:1018C00014239946043304000025012698464B460C
:1018D0001888434621681B88984701C4431E9841D5
:1018E000013540420640AF42F1D13000C0BCB9469C
:1018F000B046F8BD0126F8E7142370B50400188837
:1019000004331B880D000549984703000020002C74
:1019100001DB0130A04029009847C0465542000035
:101920000A4B1968EFF3108072B60A68002AFCD0DF
:10193000BFF35F8F1B68BFF35F8F00221A6080F3D5
:10194000108840BF002000217047C046FCE0002006
:10195000F0B5DE4657464E464546E0B585B0EFF356
:101960000582032313409A0011000392B64A52588D
:10197000904601229A40B54B91461A6031E04346A9
:101980009B881BB2002B00DB9DE043469B79002B1C
:1019900000D0EFE0434608241C5F002C00DA17E17A
:1019A00042465269630094461B19DB0063449C68FD
:1019B000DD68631C00D113E1A54B03999C4661448B
:1019C0009A6A0B69A01A9B1A984200D20C61A0482F
:1019D00000F0BEFB241A8D41002D00DDF8E000D19F
:1019E0002EE14B469A484363434608229B5E9A4643
:1019F000002BC4DB424652695B0093465344DB0034
:101A00009B445B469E68DF6800F0A2FB801BB941E7
:101A10000029B4DB002F00DAEDE05B468D4A1B693C
:101A2000934200D1E0E041465A460820085E5288C1
:101A3000000410435A465169984704000D002300E2
:101A40002B4300D1D7E0002D00DBF0E0361BAF4187
:101A500034003D005B469C60DD600021595E00293A
:101A60008DDB43465B6922009C462B0048004018F2
:101A7000C00060448668C768921BBB41002B00DA37
:101A80007DE74346664602000094019519810CE00B
:101A90007B00DB19DB00F318009801999C68DD6876
:101AA000001BA941002904DB1A000023D75E002F88
:101AB000EEDA5B461F805346138043469B881BB279
:101AC000002B00DA61E743461A69EFF3108172B622
:101AD0001368002BFCD0BFF35F8F43469B884246C0
:101AE0001BB29A4601235B4293801369BFF35F8F59
:101AF00000221A6081F310885346002B00DA44E775
:101B000043465B699C46082343449B4653465F001B
:101B100043465744FF0008229A5E67445E46BC680D
:101B2000FD68002A19DB3B000094019567469C463E
:101B300004E01E000023F25E002A0BDB00980199EE
:101B400053009B18DB00FB189C68DD68001BA94153
:101B50000029EEDA6346BC461F005346338000215D
:101B60007B5E3A809A46002BD0DA43469B79002B65
:101B700000D10FE7002342469371434646460821B1
:101B8000595E08364B1C23D047468C46556902E007
:101B900006004B1C17D04B005B18DB00E8180A004E
:101BA000E95E43881BB2002BF2DA01235B42DC17AB
:101BB0008360C4606245ECD031803B8994460380E9
:101BC0003A814B1CE7D16446B846002C00DBE7E6BF
:101BD00040BF05B0F0BCBB46B246A946A046F0BD2A
:101BE0006B1C00D0E8E6F2E65B465C6920002369E6
:101BF0009847002821D15B4642461B881381126911
:101C0000EFF3108372B611680029FCD0BFF35F8F29
:101C10004246594652880A804246514651801269CE
:101C2000BFF35F8F0021116083F31088A7E6084897
:101C300000F08EFA24184D410CE765682468FEE632
:101C4000002C00D1CDE6C3E70CD000203C7005404D
:101C5000004005405119001070B52E4C2569002D2B
:101C600004D00A212C4800F07FFD70BD2B4E0321CB
:101C7000300000F063FAE660FFF7E2FD284B032234
:101C80009C46D02322701B061B6801216370254BE4
:101C90006044A3600F238000206102206380636999
:101CA0004942A18019800231198647311D8358525B
:101CB00018315A5275325C399952183201319952A1
:101CC00018320131995218320131995208351832BF
:101CD0009D520231183299521832013199521832FC
:101CE0000131995218320131995218320131995209
:101CF0001832013199520C4B0C49DC6001303562CD
:101D000000F096FA0121032000F056FA084B1D60FE
:101D1000A7E7C046F4110020FCE000200040054089
:101D200040000034FFFF10000CD0002051190010BB
:101D30003860054000487047F4110020F8B51F00D6
:101D400008AB1B7804001600002B07D100F008FA3E
:101D500032003B00121A8B41002B4CDB2269EFF35F
:101D6000108072B61368002BFCD0BFF35F8F6269DE
:101D70000223E15E94464B005B18DB0063440029BC
:101D800001DB1A8862802269BFF35F8F002515602E
:101D900080F31088002930DB069A9E60DF601A61AC
:101DA000079A5A615A8801325204520C161C002AB2
:101DB0001FD0B0B20A045E8010432669EFF310858D
:101DC00072B63268002AFCD0BFF35F8FA2881A80F7
:101DD000A1802369BFF35F8F00221A6085F310880A
:101DE000074923788C4601329A40E36863441A60BD
:101DF000F8BD0126DDE70020FAE701204042F7E7C1
:101E00003C20000070B5C646010000B50469EFF340
:101E1000108C72B620680028FCD0BFF35F8F0220C0
:101E20000D5E48696C0080466419E4004444002D4E
:101E300001DB208848800869BFF35F8F00260660B9
:101E40008CF31088002D30DBE36063880598013344
:101E500020615B0406985B0CA26060611A1C002B79
:101E600021D090B22B04628018430A69EFF31086E8
:101E700072B61368002BFCD0BFF35F8F8B88238072
:101E80008D800B69BFF35F8F00221A6086F3108884
:101E90000B7801329A40CB6805498C4663441A603E
:101EA00040BCB04670BD0122DBE701204042F7E7AD
:101EB0003C20000010B543890A14934233DD5300DF
:101EC0009B184269DB00944604696344EFF3108C6D
:101ED00072B62268002AFCD0BFF35F8F5A880904CB
:101EE00094B2090C8A4208D00369BFF35F8F0022C5
:101EF0001A608CF31088002010BD80221202144357
:101F00005C80012302698371BFF35F8F0021116040
:101F10008CF31088054902788C469340C2680120F2
:101F200062441360E8E70020E6E7C0463C2000007A
:101F300040787047F0B504000D0006267642F7178A
:101F4000C64636196F4100B582B08F4214D811D001
:101F500000F006F932003B00121A8B41002B15DC11
:101F6000002B44D02000290000F004F902B080BC0E
:101F7000B846F0BD8642EBD90026002700F0F0F805
:101F800032003B00121A8B41002BE9DD00F0E8F82B
:101F900032003B00121A8B41002B0ADB0023019315
:101FA000144B3200009314483B00FFF72BFF00282E
:101FB000D8DBB0460026BC46104A114F7B6A9C45D0
:101FC00004D8B96A8845CDD99C45CBD11168EFF3C7
:101FD000108072B60B68002BFCD0BFF35F8F1368C4
:101FE000BFF35F8F1E6080F3108820BFE6E7002AF2
:101FF000B8D0CBE721190010F4110020FCE000203C
:102000000040054070B504000D0000F0A9F800196B
:102010006941002902DBFFF78DFF70BD01200149F6
:102020004042F8E7FFFFFF7F70B5060000F098F828
:10203000FA2204000D00002330000021920013F06A
:102040002BFD00196941002902DBFFF773FF70BD0A
:10205000012001494042F8E7FFFFFF7FF0B5CE467F
:10206000474680B504000D0083B0EFF30587002FCD
:102070003BD12F4E81463378F26804339B00916A3E
:102080009B58421A5B1A9A420ED320BF294A00205D
:10209000536AAB4203D3926A013091453CD803B0F6
:1020A000C0BCB946B046F0BD00F05AF822002B0083
:1020B000121A8B41002B26DB1F4B220000933000AD
:1020C0002B000197FFF79EFE011E1CDD194BA84651
:1020D0005A6A954225D920BF3000FFF7EBFE154A1A
:1020E0000020536A9845DAD8D5E7124A0020536A8F
:1020F0008B42D4D3926A0130A242D0D2581A421EE7
:102100009041C0B2CBE70B4A0020536AAB42C6D322
:10211000926A01209145C2D9E81A421E9041C0B28C
:10212000BDE79B6A9C42D7D99542D5D1D3E7C0463B
:10213000F4110020004005402119001010B5024A9A
:102140000248FFF7F1FA10BD10A101101C1F00207A
:102150000300416A0A00986A596A8A42FAD17047B4
:10216000034B596A0A00986A596A9142FAD170473A
:1021700000400540064A536A9942FCD807D1044BF7
:1021800002E05A6A914202D19A6A8242F9D37047B8
:1021900000400540054B064A1360064A1360536031
:1021A0009360D36013615361936170478080808036
:1021B00000E400E004E400E01F2318401E3B8340DD
:1021C000002905D0C021044A4900535013607047CC
:1021D000802201498B50FAE700E100E001228240B1
:1021E000034B1B6813405A1E9341D8B27047C04638
:1021F00000E100E001238340014A13607047C046BC
:1022000000E200E0084B10309B688000C358002BB0
:1022100007D0064A00209B1A2F229A424041C0B2A2
:1022200070470020FCE7C04600ED00E00C120020E3
:1022300070B50D00EFF3108672B60F4A1368002BCD
:10224000FCD0BFF35F8F0D4B10309B6884001B598F
:102250000B4A934203D09D4201D012F085FF074BF9
:102260009B681D51BFF35F8FBFF35F8F0022024B4E
:102270001A6086F3108870BD240100D000ED00E0E4
:10228000CD010010F0B557464E46DE464546E0B556
:1022900085B0060002911700EFF3108B72B6674A03
:1022A0001368002BFCD0BFF35F8F0025644B5D5794
:1022B0009A46002D00DAA4E06B00624C03935B1990
:1022C0009B009846A146C1444B4652469B79103626
:1022D00013705D4BB2009B68019299580B1B2F2B1A
:1022E00034D95A4B994200D0A4E0039B584A9C46EB
:1022F000584B6544AD006353434602336519E418F7
:10230000554B0121043B1B1B1B055B0D13436B80CD
:10231000524BEF71AB80FF23AB71029BAB604B461E
:102320000B431900484B019A9B689950BFF35F8F8C
:10233000BFF35F8F0022414B1A608BF3108805B00A
:10234000F0BCBB46B246A946A046F0BD01200A003B
:102350008243D379BB422FD845464E4613004049AD
:102360001B1B5B415943090D3A4B63533A4B0235F2
:102370006519043B5B1B1B05354D5B0D2B437380BF
:102380000426B446E0444444131F1B1B4C46A17171
:1023900002991B05A16049465B0D2B43A380314B7D
:1023A000E77101431360BDE75800C0188000201892
:1023B000C679BE422BD902000623D356002BF3DA8E
:1023C000101D82462848804604267642B446E144E1
:1023D00050464E46361A3005400D824656461C4839
:1023E000957106439680039A944665441D4AAD0054
:1023F000641922604246A371029BA280E771A36028
:1024000090E712F0B1FE002553465D5754E7101DCA
:10241000824690884005001584464046D44466466E
:1024200004302018301AE0260005400D36023043F3
:102430008046C9E712F098FE57E7C046240100D055
:1024400078E100200C12002000ED00E0CD0100102A
:1024500000E0FFFF00A1FFFF3C12002001BDFFFFD5
:10246000AAAA00000148804701BD0000F0B5DE4681
:1024700057464E464546E0B50C0083B0EFF3108951
:1024800072B65F4A1368002BFCD0BFF35F8F5D4BC1
:102490009A68030010339F00D5595B4A90469542D5
:1024A0003DD0A5424ED0594EAA1B2F2A37D8584AA4
:1024B000934612689446012261469246824011403A
:1024C0001F2210405246824092460191802251467E
:1024D00058468150BFF35F8FEFF305829346002A81
:1024E00032D101232A009A439068844208D17CE0CB
:1024F0004B005B189B00F318986884422ED01A009A
:10250000062151560029F3DA84424DD0019B002B5D
:102510001FD0C02251463E4B520099501960394B92
:102520009B68DD51BFF35F8FBFF35F8F0022344B99
:102530001A6089F3108803B0F0BCBB46B246A946C6
:10254000A046F0BD1500EAE79342CAD012F00CFE97
:10255000C7E7802351462E4AD150E0E7062159565D
:10256000002922DB4A005018800034188046A068F9
:102570009860E079D871062020569871002825DBF4
:10258000A488F01A6405241544440019E0240005C9
:10259000400D24022043988052181E4B9200B6181A
:1025A0001A781970B271B1E71300594600290FD19A
:1025B000FF3191711849918016490A789A71174A2A
:1025C0009B1B5B415A43120D0A709FE71448E2E7D8
:1025D000144A1549D21A083A5002400D0143998015
:1025E000124952080A43DA8090E706215156130037
:1025F0000029B7DA5A46002AEAD14546DCE7C04648
:10260000240100D000ED00E0CD0100100C120020EC
:1026100000E100E078E1002001BDFFFFAAAA000070
:1026200001BD00004612002000F0FFFF00F8FFFF90
:1026300010B58308040003202040FF24054AC00091
:102640009446844081409B0063441A68A2430A4335
:102650001A6010BD00E400E070B501240443EFF3FC
:102660000581EFF3108C72B6214A1368002BFCD061
:10267000BFF35F8F1F4B05001F4AED1A6D416A4380
:10268000120D1E4D8900AE6852B27658A6421CD07B
:102690000621595691421CD012215956914222D0FE
:1026A0001E215956914220D02A2159560324914285
:1026B00010D0134B19781A708171BFF35F8F00220D
:1026C0000B4B1A608CF3108870BDAB680D4C5C50DE
:1026D000EFE700246100091989005B18FF21997157
:1026E00009499980E5E70124F4E70224F2E7C046AE
:1026F000240100D00C120020AAAA000000ED00E086
:1027000078E10020CD01001001BDFFFF1F2110B5B1
:10271000091A0248FFF778F810BDC04686E100208C
:1027200000B5074B83B00100009300220523054844
:10273000FFF71CF8002801DB1F23181A03B000BDA7
:1027400034A1011086E1002070B504000E001500D0
:10275000FFF776F80100200000F006F8A680E5807B
:10276000BFF35F8F70BDC046024B9C466144890039
:102770000160704740000034F8B5134D134E2C0033
:10278000FF27B5421ED22368002B0FD0FFF758F861
:1027900001002800FFF7E8FFA780BFF35F8F083430
:1027A000B4420FD223682500002BEFD1FFF748F881
:1027B00001002800FFF7D8FF2771BFF35F8F0834AF
:1027C000B442EFD3F8BDC046E8120020F01200205A
:1027D00010B50400FFF734F801002000FFF7C4FF34
:1027E000FF232371BFF35F8F10BDC04610B50400F7
:1027F000FFF726F801002000FFF7B6FFFF23A380B4
:10280000BFF35F8F10BDC04610B504000120FFF775
:1028100023F8044B9C46604480002060BFF35F8F28
:1028200010BDC04640000034034B9C466144890003
:102830000160BFF35F8F704740000034F8B5DE469B
:102840004E4657464546E0B58B4605000A991800A6
:10285000160012F095FD0A9B6C001F02324B6419A2
:102860009C46A4006444636881469F4200D9676027
:102870002B1FDBB29846012B30D9C02380229B014D
:10288000E31812011A60294BAD0059599A460029E4
:102890001BD1226876017240E02680231640424612
:1028A0005B01E3181E60012A30D9802380229B013E
:1028B000E31812011A6053464A4667605A51F0BC49
:1028C000BB46B246A946A046F8BD586912F058FD6D
:1028D000431C5800C0180338FDD2DAE75B46012BD1
:1028E000CBD1C02303229B01E3181A60023AA368EC
:1028F0001A42FCD0E0232268760156401E40802315
:102900000A4A5B019246E3181E60AD005A462168F0
:10291000514003220A401A6001225B469A40A36894
:102920001A42FCD0C1E7C04600800040241F0020AE
:10293000F0B546464F46D646C0B51F00344B44005E
:102940009C462418A4006444636888461600FF2B44
:1029500002D880235B006360031FDBB29A46012B21
:1029600030D9C02380229B01E31812011A60294B41
:1029700085005959994600291BD122687601724079
:10298000E0268023164052465B01E3181E60012AB0
:1029900030D9802380229B01E31812011A60802322
:1029A0005B0063604B465F51E0BCBA46B146A84647
:1029B000F0BD586912F0E4FC431C5800C0180338FD
:1029C000FDD2DAE74346012BCBD1C02303229B0182
:1029D000E3181A60023AA3681A42FCD0E023226886
:1029E000760156401E4080230A4A5B019146E31857
:1029F0001E60850042462168514003220A401A6049
:102A0000012342469340A2681342FCD0C1E7C0466E
:102A100000800040241F0020014B8000C0587047F8
:102A2000241F002010B54024084A83009A18126819
:102A3000C0005440C0222240054CA44663441A60A2
:102A4000044B9C466044416010BDC04604C0014038
:102A500004D00140004001400B4B80009C46604484
:102A600000290ED100230431002A00D11900802250
:102A700003685201594094460C2360440B400360A4
:102A800070470C210823EFE704C0014080000029B3
:102A900005D0064B9C460223604403607047044BFC
:102AA0009C46022360440360F8E7C04604E001400E
:102AB00004F00140D0231B061B6830B50500581EEA
:102AC000834110485C42844607203023284023403D
:102AD0008000EC08814020000B4D3C3063448000B6
:102AE000A40041511B19002A05D08022920194466E
:102AF0006344196030BDC02292019446634419605A
:102B0000F8E7C0460041014000400140D023F0B545
:102B1000C64604001B0698461B680C4F9B00F858DD
:102B20000D00160000B5044209D10443320029000B
:102B3000FC500D20FFF7A6FB80BCB846F0BD12F09C
:102B400013FB43461B689B00F858EEE7D8DF0020D4
:102B500010B504000D20FFF789FCD0231B061B686D
:102B600002499B005A58A2435A5010BDD8DF00209A
:102B70000123D02283404021120693629361094AC7
:102B800083009A181268C0005140C0220A400649CA
:102B90008C4663441A60054B9C46052360444360A1
:102BA0007047C04604C0014004D0014000400140CD
:102BB000F8B5040020481D0017000E0012F0E0FBDD
:102BC0000100380012F0DCFB069B29041B031943AB
:102BD0002368002B1EDB194B194DE21853425A4152
:102BE00080235B019C461203164B62441A60164B0D
:102BF0001A6017002B689F43FBD1144B2660E21824
:102C00002123A06013602368002BFCDA0823E16015
:102C10001360F8BD3F2322681340B342DBD1A368A1
:102C20001B051B0D8342D6D1EE22E368D20213406E
:102C30008B42D0D1EDE7C046001BB7000040FDBF7E
:102C400008C0004000E0004000F0004004300000F8
:102C500010B5140080221B4BD2051A6000281AD030
:102C60000123194A1843194BDA61194A42401A6282
:102C7000596298628022134BD2051A601549164A90
:102C80001160E022D2041A60002C07D18022134B7D
:102C900012061A6010BD0D4BD861EBE763011B1BD8
:102CA0009A008023121912015B049A4200D30C4A45
:102CB0000C4B1A60054B5A608022084BD2051A60F3
:102CC000E8E7C04600B00540D3C007B0008005402B
:102CD0002D3FF84FFCFF01000820014000A00540F7
:102CE000FFFFFF00743600208023024A9B000B4345
:102CF000D362704700800540AA23064A1B01136077
:102D00002F230549D360054B19605368002BFCDA6B
:102D10007047C0460040024000B0FA000060024028
:102D200010B501F003FC00F067FB00F02BFD00F094
:102D3000D5FD06F0F9F801F089FC00F09FF906F0E6
:102D400063F810BD40BA80B27047C04600BA704701
:102D5000F0B5C646040000B508008846160016F017
:102D6000BBFF05002000002D1AD02378002B1AD0BD
:102D7000A6196219964216D34246177806E0637880
:102D80000134002B0FD0621996420CD39F42F6D12A
:102D90002A004146200016F0CDFF0028EFD1200088
:102DA00080BCB846F0BD0020FAE7C046F0B500226E
:102DB0002026845C8B5C9C420AD025003543EDB212
:102DC0002F00613F192F08D83343DBB29D4204D155
:102DD0000132002CEDD1002000E00120F0BDC04602
:102DE000F8B54746CE4680B5070104003818000103
:102DF00010308146404D414E2B688846B144002B2F
:102E000002D02A7AA24258D0EB68002B02D02A7D49
:102E1000A2424BD0AB69002B03D02022AA5CA24275
:102E20003DD06B6A002B03D02C22AA5CA2422FD08B
:102E30003B191B01F318DB7B002C04D0B27A022A69
:102E400041D0012C06D08D225200B25C022A43D020
:102E5000022C05D02A4AB25C022A43D0032C03D0AC
:102E6000284AB25C022A42D0032B0DD8264D9B0083
:102E7000585906F047FB00223C1924013619F37B10
:102E80009B005A510423F373C0BCB946B046F8BD49
:102E900041464846AA6A984700236B62C8E7414604
:102EA0004846EA6998470023AB61BAE7414648467D
:102EB0002A6998470023EB60ACE748466A68984760
:102EC00000232B60A0E7F27B9A42BAD104233C197D
:102ED00024013619F373D7E72022FF32B25C9A42FD
:102EE000B6D1F3E7094AB25C9A42B7D1EEE7084A95
:102EF000B25C9A42B8D1E9E76C290020A4290020ED
:102F00002A0200003A0300005C2900202F02000082
:102F10003F030000F0B5DE464E4657464546834621
:102F2000E0B5030187B04F4A01935B441B01D618FB
:102F3000F27A012A00D992E04B4992008C58002C79
:102F400000D17FE010331D00464B9C4665442800AD
:102F500016F0C2FEA022123081B29200362000F09C
:102F6000CDFE8146002866D003AC0C220021200053
:102F700012F068FE3089FFF7E5FE01232080A37080
:102F80000C22FF3321004846A38001F075F9374B2E
:102F90000C269A464F46013D6B1C98466B780024E0
:102FA00045462E2B06D156E06B7801340135E4B24C
:102FB0002E2B01D0002BF7D14346EB1A9BB299463A
:102FC0002300F318534542DC22003100380001F0A1
:102FD00007FA731C4A469BB234194146380001F087
:102FE00087F9A3B22A785E1CB6B2002AD4D11C009D
:102FF0003100380001F0F4F91D4B02340422029331
:1030000002A9A3B2380001F073F9164A019B944655
:1030100015495B441B0163448C46DA7ADB7B154916
:103020009B009200585862443523390006F0F4F9A9
:10303000380000F0C5FF07B0F0BCBB46B246A94659
:10304000A046F0BD0021FFF7CBFEB472F3E73800D5
:1030500000F0B6FFEFE7002200239146B1E70648F3
:10306000FDF774FFA42900209C290020FEFF00002A
:10307000000100015C29002050A101107047C046EA
:1030800082B0012801D902B070478000002903D026
:103090000A68044BC250F6E7034A024B12680192D9
:1030A000C250F0E79C290020E8BB0110F0B546466D
:1030B0004F46D646464BC0B5464E8D2734000025B8
:1030C00098467F00A37A022B35D02CD8002B1FD036
:1030D000414B9946414B9A46FEF708FAB37A80B2C3
:1030E000022B40D0F35D022B43D04B46F35C022B06
:1030F00048D05346F35C022B4DD002230122A37229
:1031000000232081E372280022736373FFF702FF1C
:1031100001351134EDB2FF34042DD3D1E0BCBA46F1
:10312000B146A846F0BD032B4ED12368002B13D126
:103130000023A372ECE7237B013BDBB22373002B5C
:10314000E6D1637B0133DBB26373042B29D0237395
:103150002800FFF7DFFEDBE7013B2360002BD7D120
:103160000023A372D4E733898342B5D0F35D022BE9
:10317000BBD11733FF33F35A8342ADD04B46F35CD8
:10318000022BB6D18A239B00F35A8342A4D0534624
:10319000F35C022BB1D1CE239B00F35A8342ACD116
:1031A0009AE7E37A002B08D142465268002A04D0FD
:1031B00001226373E2722273CAE700212800FFF73D
:1031C0000FFE0023A372A3E70548FDF7BFFEC0462C
:1031D0009C290020A42900202A0200003A030000B4
:1031E00084A10110F0B583B06B469C1D00232380A1
:1031F00001331E000640184205D0002903DD037884
:10320000013963700130032213000340104205D0DE
:103210000023012938DD03880239023007294BDDFC
:10322000083907220F009743020005000832BF1833
:103230002A689A189A429B415B42D2186B680835FB
:10324000D3189342924152429B18AF42F0D1CA0820
:10325000551CD200ED00891A1A044019120C1B0CDF
:103260009B18012910DD02889B188A1E012A05DDA2
:1032700045885B19052901DD81885B1851084D1CC3
:103280006D0049004019511A012901D102782270BC
:103290002288D218130C1204120C9B18180C1B0451
:1032A0001B0CC018002E04D0030600041B0C000EDB
:1032B000184380B203B0F0BD1A00D0E7F0B54F4616
:1032C000D6464646C0B591461A68089B8A46196894
:1032D00004000B041B0C090C5B181104090C591891
:1032E000130C5B18180C1B041B0CC318180C1B04C4
:1032F0001F0CC719002C21D0FF230026012598465A
:1033000061896068FFF76EFFC019030C0004070CA9
:10331000DF1963891D4207D042463B06380A1B0C61
:10332000104003431F006E402468002CE8D1002E9B
:1033300004D03B063F041B0C3F0E1F43534698B27C
:10334000FFF700FD04004846FFF7FCFC2018C019F9
:10335000030C0004000C1818030C0004000C1818CF
:10336000C04380B2E0BCBA46B146A846F0BDC046F4
:1033700010B582B0049C0094FFF7A0FF02B010BD0E
:1033800010B5FFF72FFFC04380B210BDF0B5C646A1
:10339000040000B500282AD0FF23002600270125BD
:1033A000984661896068FFF71DFFC019030C00048F
:1033B000070CDF1963891D4207D042463B06380AD5
:1033C0001B0C104003431F006E402468002CE8D102
:1033D000002E09D03B0638041B0C000E1843C043D6
:1033E00080B280BCB846F0BDF84380B2F9E701482E
:1033F000F7E7C046FFFF000003220A4B002103331A
:103400009343094A09481360FA2212011971991865
:10341000016001201A60087105499950054A13603E
:103420007047C04624D000201CD0002020D00020AF
:10343000A00FA00F70360020F0B5D6464F46464686
:10344000C0B500285DD0830700D069E00300394A89
:10345000083B12689A4260D837490C3009688142AB
:103460005BD31879002861D0FA201D8800018542BD
:103470000CD85C88A246844208D8981A80B280464C
:103480001619A04205D03088404502D02B48FDF7E0
:103490005DFD5019814202D044884445F6D1002494
:1034A0001C71274CA44624689C4202D964462360C0
:1034B0001C00994237D9834213D00779002F10D1CD
:1034C00081420ED0A04224D005881D800188FA20B8
:1034D0000001814205D040465118488059888A46EB
:1034E0005618B3420DD0317900290AD1A3420DD02C
:1034F000FA2135801B8809018B4202D0D31852462D
:103500005A80E0BCBA46B146A846F0BD61460E609E
:10351000EEE761461C000B60D6E70A48FDF716FD92
:103520000948FDF713FD0948FDF710FD0848FDF7B0
:103530000DFDC0461CD0002020D000200CA20110A0
:1035400070360020C8A10110A4A1011040A20110F2
:10355000E4A10110F0B5C6463B4BCA1C00B51340B0
:103560000B2B3FD9FA22120193423ED899423CD804
:10357000364A146884425ED8354A126882425AD963
:103580000500083D291B8AB290462E88414632002C
:10359000083A521A92B29A4250D320D0A7193979D8
:1035A000002924D1FA22120196424AD03A88294EA3
:1035B0009446424608329B1832689BB2BA4237D0D2
:1035C000E21861461180414600265180FA211671A9
:1035D0002B80128809018A4201D0A218538080BC36
:1035E000B846F0BD0C239942C2D90020F7E71F006E
:1035F0001437BFB2BA42F2D3424608329B18FA22BD
:103600009BB2120196421CD0124FE21839689142C7
:1036100000D93A60414600275180FA21177116807F
:103620002B80128809018A42D9D0A4186380D6E77A
:10363000E2183260C5E70848FDF788FC0748FDF747
:1036400085FC0748FDF782FCFCFF00001CD0002031
:1036500020D00020703600205CA2011074A201105E
:1036600094A20110F0B5D6464F464646C0B5002894
:103670002FD03D4CC31C1C400B2C30D9FA231B010E
:103680009C4226D8A04224D8384BFA229C461B687C
:1036900012019A46364B121B1E6853469B1B98B26A
:1036A0001B0490461B0C9A4213D908277F4208E05E
:1036B0001588FB1A5B19A34213D22B00280043453F
:1036C00007D2F21811790029F2D01088030043457F
:1036D000F7D30020E0BCBA46B146A846F0BD0C24A2
:1036E000D0E71427B846A0444746BFB2BB421CD21D
:1036F000012308341371A4B21E4B186813009245BD
:103700000ED0A418A0422CD3100008309307E1D0AB
:103710001948FDF71BFC1B88F318197900291AD0EA
:103720009842F8D163461860EBE7FA270834A4B250
:1037300003193F019BB2B946BB420FD0F71839714C
:1037400001213D8078801380117139884945D3D09B
:1037500071184B80D0E761460B60D2E70748FDF750
:10376000F5FB0748FDF7F2FBFCFF00007036002078
:103770001CD0002020D00020D8A2011094A201105B
:10378000A8A2011024230022F0B54746CE46904659
:10379000994603320425944680B5124F124B134CC0
:1037A000B94441463A682160614603338B43002D9A
:1037B0000BD016880021002200E0030001321960BE
:1037C000981919002360AA42F7DB0437B94504D0E1
:1037D0003A68946853685588E3E7C0BCB946B04678
:1037E000F0BDC046CCA30110B0C70020D8CF002048
:1037F00010B5082810D80B4B8000C458FDF7CAFA42
:10380000A3681C68002C03D022681A60A30705D1A6
:10381000FDF7C2FA200010BD0024FBE70248FDF7C7
:1038200095FBC046CCA301101CA3011070B50C0081
:1038300008280ED800290CD0084B8000C5588B07EB
:1038400008D1FDF7A7FAAB681A6822601C60FDF783
:10385000A3FA70BD0248FDF779FBC046CCA3011066
:1038600040A301100C2040427047C04670B50500CF
:103870000C00160082B000292AD043680A689A42D8
:1038800001D102B070BD3360300001A9019202F095
:1038900001F9300001A905F061FE01A9300000F036
:1038A00025FE392322686A60E95C343B0B40052B16
:1038B00005D0EB69002BE4D028009847E1E7002A07
:1038C000F7D00B07F5D52800291D09F0C9FEF0E750
:1038D0000148FDF73BFBC046F0A301107047C0460E
:1038E000F0B5C64600B504000E001700984682B039
:1038F00000286AD0099B002B67D0002900D174E012
:10390000002F00D16FE04346002B69D03F4B0025CC
:1039100063610022392320006560A560E56025868B
:103920000021E2542830042212F08CF9089BE56152
:1039300063623C232562364D2A78E2540A9B236158
:103940003368002B3AD13100200001AAFFF78EFF27
:103950000122A168E0683B68994200D0A360434619
:103960001B68984200D0E360002A33D02000099BF6
:103970009847002829D1274B3C2698461F683C23AE
:10398000E05C00239C46FF2802D163460020A3553B
:10399000002F2CD0BC4236D03B00FF2207E01B6832
:1039A000002B24D09C422ED0013A002A0AD0995DE7
:1039B0008142F4D10130C0B2A055E4E700200021DB
:1039C0000022C8E71448FDF7C1FA002002B080BC0D
:1039D000B846F0BD3100200001AAFFF747FFC5E758
:1039E0000E4B984692E70D4F8DE70C4E88E7FE2868
:1039F00007D00130C0B243462870276020001C6009
:103A0000E4E70020F7E70648FDF7A0FA6538001064
:103A10007EE10020F8CF002014A40110E8BB0110C3
:103A200000A40110F0B504000D0016001F0083B0C3
:103A300000294ED0002E4AD0002F46D02B680022FD
:103A4000002B0CD03368A1688B4200D0A3603B6888
:103A5000E1688B4230D1002A31D003B0F0BD6168FB
:103A600001220029EED06846009101A9019302F0DD
:103A700011F8684601A905F071FD01A9684600F03A
:103A800035FD39232A686260E15C343B0B40052B2D
:103A900007D1002A05D00B0703D52000211D09F00E
:103AA000DFFDE369002B01D0200098473368A1684F
:103AB00001228B42CBD0C9E7E360002ACDD16A4610
:103AC00029002000FFF7D2FEC7E7034FB6E7024EFA
:103AD000B2E7014DAEE7C046E8BB011070B5041E69
:103AE00016D04368002B17D139220121A35C19425B
:103AF00024D11D4B1A68A2422ED01C4A1368A3423F
:103B000004D126E01A68A24203D01300002BF9D199
:103B100070BD22681A60FBE7051D0021280001F036
:103B2000B9FF0021280005F019FD0021280000F050
:103B3000DDFC39220121A35C1942DAD01800884348
:103B4000A0541B070BD4E369002BD2D02000984768
:103B5000CFE723681360DBE700221A60CDE720007F
:103B600009F0DCF9EFE7C046F4CF0020F8CF0020E1
:103B7000014B18607047C046F4CF002070B5041E9A
:103B800015D03925435DDA0711D401221343DBB286
:103B90004355C269002A01D09047635D05221A404F
:103BA000052A04D16268002A01D01B0700D470BD29
:103BB0002000211D09F054FDF9E7C04670B5041E30
:103BC00003D03925435D5A0700D570BD0422134345
:103BD000435506F067FC0523625D1340052B05D0B5
:103BE000236A002BF1D020009847EEE76368002B92
:103BF000F6D01307F4D52000211D09F031FDEFE7C1
:103C000010B500280AD039220421835C194205D05E
:103C10008B438354036A002B00D0984710BDC046E5
:103C2000021E0ED0084B1868002809D03C2102E083
:103C30000068002804D0435C0133DBB29342F7D123
:103C400070470020FCE7C046F8CF0020F8B505001B
:103C50000026002826D00F270BE0012B24D0002BB4
:103C60002AD12800FFF7E8FB0136F6B2002C19D064
:103C70002500FDF78FF8AC7B002C1AD0013CE4B294
:103C8000AC73FDF789F8002C0CD12B7B2C683B40E2
:103C9000022BE2D1290008200136FFF7C7FDF6B25A
:103CA000002CE5D13000F8BD29000720FFF7BEFD4C
:103CB000DAE70348FDF74AF90248FDF747F9C0463D
:103CC00044A401105CA4011010B5FDF763F80022B4
:103CD000084B1A70FDF760F8074B1868002803D1ED
:103CE00007E0C068002804D0436F002BF9D001F032
:103CF0001FFF10BD80E100201CE10020F0B5C123B2
:103D00004F464646D6468046C0B50D00170084B2E1
:103D10005B009A423FD008D81400433BFF3B9C43D2
:103D2000012C6AD03C48FDF711F9A0239B009A4270
:103D3000F8D1E31C0324CA1CA343A2439B189BB2E3
:103D40001800103080B293421ED382421CD8FFF775
:103D500089FC061E19D0002303604346C718133799
:103D60002E4B2904A7430D4347608560C3600CE0D8
:103D7000FDF710F801222A4B1A70FDF70DF8002EFE
:103D800002D03000FFF762FF00263000E0BCBA46E8
:103D9000B146A846F0BD00239846224B00269A461D
:103DA00000230327994607E043466D1AADB2186019
:103DB000002DEAD0804600240820FFF719FD0028D6
:103DC000D6D05246E31CBB43D31A1A1C9BB2AB425B
:103DD00000D92A1C4B46041903601334124BBC4310
:103DE00091B2446005814281C360002EDCD16D1A1E
:103DF000ADB20600002DDDD1C7E70720FFF7F8FCC4
:103E0000061EC2D0002329040D4303604360856071
:103E100007734373C481B8E770A4011080000100E8
:103E200080E10020EC0500008200010070B5041E56
:103E300034D002898A421CD90D008A1A07E02389EE
:103E40006D1A9B1823812468ADB2002C20D06189A3
:103E5000A942F4D3237B1B0701D1A9420AD129042B
:103E600020682943A160002801D0FFF7EFFE00235E
:103E7000236070BD63682000191B691889B2FFF7C1
:103E800069FB002807D08442E9D00648FDF75EF8B8
:103E90000548FDF75BF80548FDF758F80448FDF7BD
:103EA00055F8C046D8A40110A4A40110BCA4011068
:103EB0008CA40110030070B5002820D0802252028B
:103EC00091421AD2002916D002898CB2A21892B25D
:103ED000944212D8057B01207F2D0DD95D68691AA7
:103EE0001D001035A94207D3596059890020641874
:103EF0005C811A8100E0002070BD0120FCE70148D0
:103F0000FDF724F8F4A4011010B5002818D0802380
:103F10005B02994212D200290ED043898AB29A429A
:103F20000CD844689B1AA4464381038961449A1AB9
:103F300041600281002010BD0020FCE70120FAE76B
:103F40000148FDF703F8C046F4A4011010B500299C
:103F500015DB00282FD0002923D003898AB2D3187B
:103F60009BB29A4225D8047B7F2C1CD84468611AE6
:103F700041604189038152184281002010BD002810
:103F800019D0494243898AB29A4212D844689B1A8E
:103F9000A4464381038961449A1A4160028100204A
:103FA000ECE70020EAE74468611A04001034A142FB
:103FB000DED20120E2E70148FCF7C8FFF4A40110BB
:103FC00010B5002802D0FFF741FE10BD0148FCF7F4
:103FD000BDFFC046F4A4011003000020002B04D054
:103FE0001B68013080B2002BFAD1704710B5041E57
:103FF00009D0FCF7CFFEA37B0133A373FCF7CCFE03
:10400000A37B002B00D010BD0148FCF79FFFC046EA
:1040100000A5011010B5002814D0002912D00368A3
:10402000002B07D002890C891219028118001B6825
:10403000002BF7D102894389934204D10A89016098
:104040009B18038110BD0148FCF780FF14A50110E7
:1040500010B50C0000281FD000291CD00368002BCD
:1040600007D0028921895218028118001B68002B91
:10407000F7D102894389934214D1228904609B18A5
:104080000381FCF787FEA37B0133A373FCF784FE57
:10409000A37B002B03D010BD0029FCD0F1E703481F
:1040A000FCF754FF0248FCF751FFC04600A5011081
:1040B00014A50110F0B54F46D64646468146C0B518
:1040C000884692461F00002900D184E00B89934264
:1040D00000D280E0002800D17DE053460289FB1821
:1040E0009A4200DA77E0002644890CE043465A8978
:1040F0001B899A423DD04B465C891B899C424DD01E
:104100005346002B57D043465B89E41B9B1B9C42C4
:1041100000D91C005546A24500D925004B465B68D6
:104120002A00D81943465B687F19991911F090FD50
:10413000534676195D1BABB29A464B465C89BC422E
:104140004CD343465B89B3424BD305D143461B68EE
:1041500000269846002B17D0BC42C7D14B461B689F
:104160009946002B1FD043465A891B8900279A4243
:10417000C1D143461B68002BBDD006204042E0BCA5
:10418000BA46B146A846F0BD5346002B23D1BC42E7
:1041900019D04B461B899C420DD100264B461B680B
:1041A000002BADD0E9E75346002B14D143461A89C2
:1041B0005B899A4201D00020E1E743461B68002B4F
:1041C000DBD10020DBE74B461B689946002BF2D081
:1041D00000275C89DDE710204042D0E70248FCF769
:1041E000B5FE0248FCF7B2FE44A501105CA5011023
:1041F00010B5002904D000230A89FFF75BFF10BD2A
:1042000010204042FBE7C046F0B5C6460500884690
:1042100016001900002700B5002828D04346002BBF
:1042200025D0002A05D122E02D68091B89B2002D76
:104230001DD06C89002901D0A142F5D2641AA4B224
:10424000321CA64200D9221C4346D8196B6894B28E
:104250009C46361B22006144E719B6B211F0F8FC07
:10426000BFB22D68002E02D00021002DE1D1380010
:1042700080BCB846F0BDC046F8B5CE4647460500FE
:104280008846914680B5002824D0002922D0038991
:1042900093421CD316000027002A02D112E0002D01
:1042A0001BD06C89B44200D9340043466868D919E0
:1042B000220011F0CDFC361B2D683F19002EEED1E7
:1042C000B9450DD10020C0BCB946B046F8BD0120AB
:1042D0004042F8E710204042F5E70348FCF736FE7D
:1042E0000248FCF733FEC04678A5011090A50110E6
:1042F000F0B5D6464F46464604008A46C0B500286B
:1043000005D13AE024685B1B9BB2002C35D065894F
:104310009D42F7D921899F18B9422EDBE91A8A42BA
:1043200032DD8AB2904662685146D0187D1B424603
:1043300011F08EFCABB29946002B1CD02568002DE5
:1043400029D02B894B4518D34F46002601E0002D7C
:1043500024D06C89BC4200D93C004346F1186868FF
:104360002200514411F074FC3F1B2D683619002FB8
:10437000EDD1B14515D1002001E001204042E0BC63
:10438000BA46B146A846F0BD60685146C01811F063
:104390005FFC0020F3E710204042F0E70248FCF702
:1043A000D5FD0248FCF7D2FD78A5011090A50110BB
:1043B0000B0070B5150011891A00FFF79FFC041E51
:1043C00006D0002329002A89FFF774FE002801D1B6
:1043D000200070BD0148FCF7B9FDC046A8A501103A
:1043E00005E043898B4205D8C91A006889B20028C4
:1043F000F7D1704743685A54FBE7C046F0B5DE4634
:10440000454657464E468146E0B5344F83B039683D
:1044100078690AF093FA4B465A68314B80461C681B
:104420009B460020557A002C3AD00026844604E0B2
:10443000E3682600002B32D01C00237CAB42F7D16E
:10444000217A002906D03C237868C35C0133DBB2B3
:104450009942EDD14346002B29D02368002BE7D1A8
:104460000121637C194203D0636839698B42DFD133
:1044700063699A46002BDBD0019221004A46194B12
:10448000A069D047002819D14B465A68019B9A422F
:1044900021D102239C46E3682600002BCCD1604644
:1044A00003B0F0BCBB46B246A946A046F0BD2368A7
:1044B000002BD5D079698B42BAD1D1E7002E08D034
:1044C000E3680120F3605B461B68E3605B461C60A9
:1044D000E6E70120E4E70448FCF738FD5436002005
:1044E000E0DF002064360020BCA5011010B50028D4
:1044F00011D00268002A0ED000290CD00B68002BC6
:1045000009D0094B1B68002B05D01C68944203D0CE
:10451000DB68002BF9D110BD0A681A60DB68002B3C
:10452000F9D00268F1E7C046E0DF00207047C046DE
:1045300010B5041E23D0037D042B05D0072B0FD00C
:104540000020032B00D010BD200003F025FD002823
:104550000AD105232375200004F04AF80020F2E771
:1045600003F01AFD002807D0431CECD10822638B0E
:10457000002013436383E6E709232375EBE7014833
:10458000FCF7E4FC08A6011070B50600806F002857
:1045900003D0FFF715FD0023B367746F002C18D00C
:1045A0006068256800280CD0FFF70AFD2100042070
:1045B000FFF73CF9002D0AD02C0060682568002820
:1045C000F2D121000420FFF731F9002DF4D10023AE
:1045D00073670123F46E5B423386002C16D060684B
:1045E000256800280CD0FFF7EBFC21000420FFF722
:1045F0001DF9002D0AD02C00606825680028F2D132
:1046000021000420FFF712F9002DF4D1346F002CA3
:1046100016D06068256800280CD0FFF7D1FC210077
:104620000420FFF703F9002D0AD02C0060682568EC
:104630000028F2D121000420FFF7F8F8002DF4D172
:1046400000236822F3663367B35270BD10B5FCF7E0
:104650004DFF044B80049C46800C034B6044188043
:1046600010BDC04600C0FFFF5812002010B5037DEA
:104670000100012B03D00220FFF7D8F810BD01483C
:10468000FCF764FC14A60110F8B5CE46474680B589
:10469000002963D0002866D0037D002B60D1002A5A
:1046A0002BD0324E3700103733681B68002B03D1F4
:1046B00013E0DB68002B10D0DC8A9442F9D11C682F
:1046C000002C04D00D68002D01D0AC42F1D108209F
:1046D0004042C0BCB946B046F8BD0436BE42E3D144
:1046E0000B68002B00D00360214BC2821A6818604F
:1046F000C26004F069FB0020EBE71E4B8026984661
:104700001A881D4B194F9C4610239946F601B9444F
:10471000013292B2624514D03D002B681B68002B19
:1047200003D111E0DB68002B0ED0DC8A9442F9D172
:10473000013EB6B2002EEBD1434602201A80404221
:10474000C7E7C0221202E7E704354D45E5D14346ED
:104750001A80002AC4D102204042BAE7074999E7EB
:1047600006204042B5E710204042B2E794AA01106B
:1047700020E1002058120020FFFF0000E8BB0110DC
:1047800070B5041E33D0037D002B30D10320FFF71A
:104790002FF8051E2BD0012223690361E38A0275DD
:1047A000C382627D4275A268826022680260002B2B
:1047B0000CD0154A13689C4204D11FE0DA68944279
:1047C00017D01300002BF9D10023E360237D012BC8
:1047D00017D021000220FFF729F80C4BAB610C4BDE
:1047E0001A681D60EA6004F0EFFA280070BD002529
:1047F000FBE7E268DA600023E360E7E7E368136061
:10480000E2E70448FCF7A2FB20E1002099510010E8
:1048100028E1002014A60110F8B5031E1FD0078D53
:10482000C16A456A5C8E114E781A4019221CB44246
:104830000BD892B2821A0CD5491B0CD4802252029A
:1048400091420FD200205985F8BD321C92B2821AD3
:10485000F2D45F85F8E7002200205A85F4E7044887
:10486000FCF774FB0348FCF771FBC046D016000050
:1048700028A601104CA60110F8B500281DD0037D14
:10488000012B34D0028D1D4B511889B299421BD98E
:104890001900466A458E1A4FC46A0185F3182A1C0E
:1048A000BD420BD892B212199A1A11D5A41B1BD46F
:1048B0008022520294421DD24485F8BD3A1C92B225
:1048C00012199A1AF2D403E08A42E1D80B00E0E709
:1048D0000C4A41851B1B9342EFD90222438B1343A1
:1048E000438303F085FEE8E700234385E5E70648B8
:1048F000FCF72CFB0548FCF729FBC046A02D000067
:10490000D0160000670B000068A601104CA601102D
:10491000F0B5DE46454657464E46E0B5BF4DC04A67
:104920002B6887B001332B60BD4B1B7801331370AC
:10493000BC4B9B465B461C68002C00D1CCE000239E
:104940000593237D002B00D112E2012B00D115E24B
:104950000A2B00D10FE2B24AA17F1278914200D116
:1049600058E1A2774222A25C022B00D1FDE00B2A83
:1049700000D9F7E0A122A65C002E00D15AE1226FF7
:10498000002A00D012E2E26E002A00D10BE2A2223D
:10499000A25C0B2A00D9E5E0A020A34A9619013EAB
:1049A0003178225C8A4200D28DE16023E15A0029ED
:1049B00000D0B9E0200004F025F9002800D0BFE0C5
:1049C000A0230022E254A132A35C062B00D9B7E059
:1049D000012700260133A354237D062B00D1B5E027
:1049E00008210800627A10408046114227D0042B2B
:1049F00000D05EE12B68226AFA219B1A9946942323
:104A0000E35849009A469823E35898469C23E05877
:104A100043465843504410F0B3FC814500D93EE171
:104A2000A3274346E05DFA21434318004900504460
:104A300010F0A6FC00239846814500D94AE1676F33
:104A4000002F0AD02B68226A9A1A4023E15E4B009D
:104A50005B185B009A4200D305E1237D032B00D154
:104A60008AE0092B00D0AEE02B68226A9B1AF02B5B
:104A700000D887E09023E6582000FFF785FD059BCE
:104A8000002B00D1ADE05B461B68A34200D17EE164
:104A9000059BE268DA604346002B00D0ADE0236955
:104AA0009946E3689846237D012B00D16CE12100F3
:104AB0000220FEF7BBFE00235C4C2370002E07D0C3
:104AC0000D2148464942B0472378002B00D031E7FA
:104AD0004446002C00D034E7554F002439680029A3
:104AE00004D11AE00C00C968002916D00B7D0A2BEE
:104AF00000D046E12B680A6A9B1AF02BF2D9002CF1
:104B000000D1DAE03B688B4200D143E1CE68E66039
:104B10000220FEF78BFE311EE8D107B0F0BCBB4689
:104B2000B246A946A046F0BD200003F053F9002884
:104B300000D045E7200003F05BFD002800D03FE7F0
:104B4000237D01270026062B00D049E7638BDB0677
:104B500005D52B68226A9B1A282B00D93E0000231A
:104B600098466CE70227012637E7052A00D801E7B7
:104B700000230126984662E72B68226A9B1A282B9D
:104B800000D977E7002E00D074E7237F627F0133DE
:104B9000DBB2E66823779A4212D80023234A2377B0
:104BA00013708C33E358002B00D17CE02100206986
:104BB00098471E4B1B78002B00D0BBE6002872D014
:104BC0000594340085E7002EDFD09022A658012BF3
:104BD00000D854E70A2B00D04EE7059B002B00D0ED
:104BE00051E75B461B68A34200D0D9E05B46E26810
:104BF0001A604346002B00D151E7238B626A216D76
:104C00000293E38A20000193231D0093230003F005
:104C1000B9FB44E70594E4685BE7C0462CE100205B
:104C200085E100201CE10020A4AA011083E10020FE
:104C300030E100203022A15E5E48228E824202D8FE
:104C4000013211B221864022A25E01278A4200DD94
:104C5000C3E6200003F0C8FA002848D0236F002BD9
:104C600042D0237DB9E67868A1463C6800280CD084
:104C7000FFF7A6F939000420FEF7D8FD002C0AD072
:104C8000270078683C680028F2D139000420FEF73C
:104C9000CDFD002CF4D14C4600236367DDE60123F3
:104CA0003E009846CBE6200003F0A2FC05943400B9
:104CB0000FE7072B00D19DE651E73B688B426CD193
:104CC000CE683E6024E70132D2B222548A4200D23A
:104CD00037E76AE6200003F025FF002800D0AEE6A3
:104CE000E35D0133E355AAE6E36E002BB9D0237DE3
:104CF000022B13D03C22A35E3E21625EDB109B1888
:104D00004222A15C0A1C0C2929D82B49D2B28A5C08
:104D10009340284A934220DC4022A352002348219A
:104D200023866033E25A605A131C824200D9031C66
:104D30004A209BB25B082352618E4A0092B2934292
:104D400000D2225248230022E1522233E2522000B4
:104D500003F084FE0127237D3FE6184BDCE70C229D
:104D60001549D2B28A5C9340124A9342D4DDF4E7EB
:104D70001348FCF7EBF81348FCF7E8F81248FCF787
:104D8000E5F81248FCF7E2F81148FCF7DFF81148A3
:104D9000FCF7DCF81048FCF7D9F81048FCF7D6F817
:104DA0000F48FCF7D3F80F48FCF7D0F80E48FCF793
:104DB000CDF8C046FE7F000084AA0110FF7F0000EE
:104DC00090A60110E8A60110BCA60110D8A70110FA
:104DD00014A6011080A7011008A8011030A8011026
:104DE000ACA7011048A7011014A7011070B5041E4C
:104DF00016D06068256800280CD0FFF7E1F8210084
:104E00000420FEF713FD002D0AD02C0060682568F1
:104E10000028F2D121000420FEF708FD002DF4D176
:104E200070BDC04610B5041E08D04068002801D0EF
:104E3000FFF7C6F821000420FEF7F8FC10BDC046BD
:104E4000002800D04175704770B5051E0DD00420B4
:104E5000FEF7CEFC041E06D01022290010F0F8FE4A
:104E60006068FFF7C3F8200070BD0148FCF76EF8DA
:104E700058A80110002800D00161704710B5002823
:104E800004D0037D012B02D08423C15010BD014802
:104E9000FCF75CF874A8011010B5002804D0037D5D
:104EA000012B02D08023C15010BD0148FCF74EF801
:104EB0009CA8011010B5002804D0037D012B02D05E
:104EC0009023C15010BD0148FCF740F8C4A8011060
:104ED000002802D0037D012B00D070478161FCE7E0
:104EE00010B5002805D0037D012B03D08C23C150C1
:104EF000427710BD0148FCF729F8C046ECA8011024
:104F000010B5002806D0037D012B03D90A2B01D050
:104F1000FFF73AFB10BDC04610B50C1E47D0002865
:104F200048D003688B4204D12FE0DA68A24224D033
:104F30001300002BF9D10023E360237D002B0FD158
:104F4000638BDA0729D4E36E002B36D1236F002B55
:104F500036D1636F002B36D100232375E38210BD59
:104F60000A2BF0D0012BF7D02000FFF70DFB237D9B
:104F70000A2BE8D0012BEFD0E2E7E268DA600023E9
:104F8000E360237D002BEBD1DAE7CB6803600023DD
:104F9000E360237D002BE3D1D2E702221343638336
:104FA000200003F025FB237D012BD5D0CBE707485C
:104FB000FBF7CCFF0648FBF7C9FF0648FBF7C6FF27
:104FC0000548FBF7C3FF0548FBF7C0FF0CA901101C
:104FD00028A9011048A9011060A901107CA901109D
:104FE000F0B54E464546DE465746E0B505000E0094
:104FF00087B0002867D0037D012B00D1B3E00A2BD6
:1050000000D1A1E0026D9246426A05929022825838
:10501000934602699146002B63D1C38A00269846C5
:10502000002B67D0534A1368834257D1C36813607B
:1050300000232C6F98460026EB60002C5DD1EC6EAF
:10504000002C16D06068276800280CD0FEF7B8FF47
:1050500021000420FEF7EAFB002F0AD03C00606824
:1050600027680028F2D121000420FEF7DFFB002F83
:10507000F4D16C6F002C16D06068276800280CD023
:10508000FEF79EFF21000420FEF7D0FB002F0AD080
:105090003C00606827680028F2D121000420FEF758
:1050A000C5FB002FF4D1002E41D12B7D012B5DD00B
:1050B00029000220FEF7BAFB5B46002B03D00D212E
:1050C00048464942D84707B0F0BCBB46B246A9465D
:1050D000A046F0BDDA68AA4242D01300002BF9D1F5
:1050E000A6E7C38A010024489846FFF715FF01226E
:1050F000224B1A702C6F002CA1D060682768002802
:105100000CD0FEF75DFF21000420FEF78FFB002F7F
:1051100095D03C00606827680028F2D12100042067
:10512000FEF784FB002F00D189E73C00F2E72B8BD0
:1051300051460293434601932B1D009328002B00F8
:10514000059A03F01FF9B0E701000D48FFF7E4FEF0
:105150002B7D012B0AD029000220FEF767FBB2E766
:10516000EA68DA6064E70748FBF7F0FE0648FBF7F9
:10517000EDFEC04620E100201CE1002083E100207C
:1051800030E1002094A9011014A6011010B50121EE
:10519000FFF726FF10BDC046080010B5002905D056
:1051A0000121FFF71DFF0D20404210BD0148FBF714
:1051B000CDFEC046C8A90110F0B5C646050000B531
:1051C0000220FEF715FB041E2AD0A4220021200095
:1051D00010F038FD6423604A6575E2525F4B40224F
:1051E000A362FF23E372F93BA352E3875C4B5D4A62
:1051F00023635D4B1B6823625C4B1B78A3775C4B7E
:10520000A3648423E2505B4A1033E2505A4A0433C9
:10521000E25009220433E250200080BCB846F0BDC1
:105220000827564E3468002C0AD02000438BE468CF
:105230001F42F8D0BB434383FFF77AF9002CF4D127
:105240004F4B1868002812D0474B1C68036AE11ABC
:10525000C368002B08D01A6AA21A914201D8110023
:105260001800DB68002BF6D10121FFF7B9FE022000
:10527000FEF7BEFA041EA8D13368002B16D03A4AB6
:105280000021106802E0DB68002B09D01A7D092A92
:10529000F9D11A6A821A9142F5D811001C00F2E77E
:1052A000002C03D000212000FFF79AFE0220FEF719
:1052B0009FFA041E00D088E73368002B16D02A4AD4
:1052C0000021106802E0DB68002B09D01A7D082A53
:1052D000F9D11A6A821A8A42F5D311001C00F2E74A
:1052E000002C03D000212000FFF77AFE0220FEF7F9
:1052F0007FFA041E00D068E76BB2002B2ADB002D7A
:1053000021D02A003368013AD2B2002B1BD01649B3
:105310000F680021884607E0186A3A1A90461C0078
:105320000A00DB68002B08D0597D8A42F4D8F8D1F6
:10533000186A3E1A4645F4D3EFE7002C03D001214A
:105340002000FFF74DFE0220FEF752FA041E00D1A6
:1053500062E73AE77F22D5E7A02D0000A02DA02D1F
:10536000FFFF1802BD5600102CE1002085E100204F
:105370000100A02D00DD6D00F82401001CE10020DB
:1053800030E10020F8B50220FEF732FA041E28D0E2
:10539000A4220021200010F055FC4022642359492A
:1053A0006275E152584BA362FF23E372F93BA352AB
:1053B000E387564B564A2363564B1B682362564B72
:1053C0001B78A377554BA3648423E250544A1033CF
:1053D000E250544A0433E25009220433E2502000E0
:1053E000F8BD0826504D2C68002C0AD02000438BB5
:1053F000E4681E42F8D0B3434383FFF799F8002CCA
:10540000F4D14A4B1868002812D0424B1C68036A3A
:10541000E11AC368002B08D01A6AA21A914201D877
:1054200011001800DB68002BF6D10121FFF7D8FD31
:105430000220FEF7DDF9041EAAD12B68002B16D03E
:10544000344A0021106802E0DB68002B09D01A7D85
:10545000092AF9D11A6A821A9142F5D811001C0062
:10546000F2E7002C03D000212000FFF7B9FD022055
:10547000FEF7BEF9041E00D08AE72B68002B16D079
:10548000244A0021106802E0DB68002B09D01A7D55
:10549000082AF9D11A6A821A9142F5D811001C0023
:1054A000F2E7002C03D000212000FFF799FD022035
:1054B000FEF79EF9041E00D06AE72B68002B1AD075
:1054C000144A00253F21166806E0186A11001C00E6
:1054D000351ADB68002B08D05A7D9142F5D8F8D1F7
:1054E000186A371AAF42F4D3F0E7002C03D0012139
:1054F0002000FFF775FD0220FEF77AF9041E00D1A7
:105500006DE745E7A02D0000A02DA02DFFFF18029C
:10551000BD5600102CE1002085E100200100A02DE7
:1055200000DD6D00F82401001CE1002030E10020C6
:1055300030B5040085B0002800D19FE0037D00292C
:1055400003D0042B0DD0072B0BD0012B00D169E029
:10555000022B4ED0002B3BD02000FEF7E9FF05B018
:1055600030BDA26F002A54D0638BDB0600D488E0E4
:10557000238B20000293E38A626A0193231D009328
:10558000216D230002F0FEFE237D012B04D90A2B9E
:1055900002D02000FEF7F8FF3D4A1368A34214D161
:1055A000E368136000230122E3603A4B1A703A4B20
:1055B0001B68A34232D0237D012B24D13748FBF74F
:1055C000C5FCDA68A24250D01300002BF9D1E9E7FC
:1055D000E38A002B17D0324A1368A34204D14AE071
:1055E000DA68A24244D01300002BF9D10023E36013
:1055F00009E021002648FFF78FFC0122254B1A7095
:10560000237D012BDAD002202100FEF70FF90020C4
:10561000A5E7244A218D9142A6D196E702F046F8EB
:1056200000209CE7204A002110000C3053681B68C2
:10563000002B05D0DD6FAC4212D0DB68002BF9D116
:1056400004329042F2D121001848FFF765FC237D17
:10565000012B19D003202100FEF7E8F800207EE797
:10566000D967DB68002BE5D1EAE7E268DA6099E701
:10567000E268DA60BAE7E3681360B7E70C48FBF763
:1056800065FC0C48FBF762FC0B48FBF75FFCC0466F
:105690001CE1002083E1002024E1002014A6011079
:1056A00020E10020A02D000094AA011028E1002094
:1056B000E8A9011008AA011024AA0110F0B5C646F5
:1056C0000C00150000B500294ED0002A2AD00B7D11
:1056D000012B4CD01389098D284ACB189BB29342D9
:1056E0001CD913009046676A668E254AE06A2385B6
:1056F000B844311C964200D9111C424689B209189F
:10570000511A18D5C01B13D480235B02984231D2A2
:1057100060852800FEF754FC002006E09942E0D89E
:105720001A00DFE70020002B12D080BCB846F0BD85
:1057300000236385EDE76385124B121A9A42E8D97C
:105740000222638B20001343638302F051FFE0E7E2
:105750000B7D012B03D010224B8B13434B83012174
:105760002000FFF7E5FEE0E710204042DDE70648B5
:10577000FBF7ECFB0548FBF7E9FBC046A02D00005A
:10578000D0160000670B000068A601104CA601109F
:10579000F8B5041E32D00023856F6F7B8367843396
:1057A000C658002E0CD0010000232A000069B04723
:1057B00000280BD00D301ED00520A5674042F8BD53
:1057C0002989FFF759F82800FEF7FAFBBB0610D528
:1057D000238D0C4A934201D0013323858423E5585D
:1057E000002D06D00023002221002069A8470D309B
:1057F00001D00020E3E70D204042E0E710204042C6
:10580000DDE7C046A02D0000F0B54F464646D6461F
:10581000C0B5204D204F2B7801332B701F4B99467C
:10582000012398464B461C68002C1BD008262B7879
:10583000A27F9A421BD04246A377638B1A421ED1A5
:105840001E4216D1E3689A46A36F002B07D00023AF
:1058500020003B70FFF79CFF3B78002BE2D15446C1
:10586000002CE4D1E0BCBA46B146A846F0BDE468DD
:10587000F6E7B34320006383FEF75AFEE2E7022215
:1058800013436383200002F0B3FE0322638B934330
:105890006383D5E785E1002083E100201CE100203F
:1058A00010B5FFF7B1FF054A13780133DBB213706F
:1058B000DB0700D410BDFFF72BF8FBE784E10020E5
:1058C00030B5040085B0002800D19BE0037D012B9A
:1058D00052D01021428B0A434283042B36D1A26F4F
:1058E000002A3DD0238B20000293E38A626A019351
:1058F000231D0093216D230002F044FD237D012B25
:1059000004D90A2B02D02000FEF73EFE404A13685D
:105910009C4218D1E368136000230122E3603D4BF1
:105920001A703D4B1B689C421FD0237D012B63D016
:1059300002202100FDF77AFF002005B030BDDA68B3
:10594000944216D01300002BF9D1E5E7072BC6D0FF
:10595000022B47D0002B32D02000FEF7E9FDECE708
:105960002E4A218D9142BDD1F2E701F09FFE002029
:10597000E3E7E268DA60CFE7294A002110000C3043
:1059800053681B68002B05D0DD6FAC4212D0DB687A
:10599000002BF9D104328242F2D121002148FFF7D5
:1059A000BBFA237D012B30D003202100FDF73EFF01
:1059B0000020C2E7D967DB68002BE5D1EAE7E38A7C
:1059C000002BB5D0184A13689C4208D1E3681360D5
:1059D0000023E360ACE7DA68944210D01300002B98
:1059E000F9D1F5E721000A48FFF796FA0122094BA1
:1059F0001A70237D012B9BD10C48FBF7A7FAE268B4
:105A0000DA60E5E71020404297E70948FBF79EFA85
:105A10001CE1002083E1002024E10020A02D0000F3
:105A200094AA011028E1002020E1002014A6011012
:105A300024AA011010B5002807D0054B054A1068AC
:105A40001A6894466044186010BD0348FBF77EFA5C
:105A5000541200202CE1002040AA011010B5002AA9
:105A600012D000290AD00B8E002B07D0282B06D984
:105A7000283B1A1C9BB2834203D890B210BD002071
:105A8000FCE7021C90B2F9E70148FBF75FFAC04659
:105A90005CAA011070B504000D00002802D0036854
:105AA000002B00D170BD1F4A1068002805D0026885
:105AB000934226D0C0680028F9D11B4B18680028F3
:105AC00006D0236802689A4224D0C0680028F9D121
:105AD000002DE7D02B68002BE4D0144B1A68002A65
